{
  "contractName": "Wordgame",
  "abi": [
    {
      "constant": true,
      "inputs": [],
      "name": "owner",
      "outputs": [
        {
          "name": "",
          "type": "address"
        }
      ],
      "payable": false,
      "stateMutability": "view",
      "type": "function",
      "signature": "0x8da5cb5b"
    },
    {
      "inputs": [],
      "payable": false,
      "stateMutability": "nonpayable",
      "type": "constructor",
      "signature": "constructor"
    },
    {
      "anonymous": false,
      "inputs": [
        {
          "indexed": false,
          "name": "round_index",
          "type": "uint256"
        },
        {
          "indexed": false,
          "name": "participant_index",
          "type": "uint256"
        },
        {
          "indexed": false,
          "name": "participant",
          "type": "address"
        },
        {
          "indexed": false,
          "name": "fee",
          "type": "uint256"
        },
        {
          "indexed": false,
          "name": "participationTime",
          "type": "uint256"
        }
      ],
      "name": "PARTICIPATION",
      "type": "event",
      "signature": "0x44c9d19fd0e696a4baba85d685148ad8a5607aa35f4592f6d7026b9f026146cb"
    },
    {
      "anonymous": false,
      "inputs": [
        {
          "indexed": false,
          "name": "round_index",
          "type": "uint256"
        },
        {
          "indexed": false,
          "name": "participant_index",
          "type": "uint256"
        },
        {
          "indexed": false,
          "name": "participant",
          "type": "address"
        },
        {
          "indexed": false,
          "name": "answerCount",
          "type": "uint256"
        },
        {
          "indexed": false,
          "name": "playtime",
          "type": "uint256"
        }
      ],
      "name": "SUMMIT",
      "type": "event",
      "signature": "0xcd3da99e2107a36ded1a22af815b271eba2467ba618e20d68a645cbf3c01a513"
    },
    {
      "anonymous": false,
      "inputs": [
        {
          "indexed": false,
          "name": "round_index",
          "type": "uint256"
        },
        {
          "indexed": false,
          "name": "winner",
          "type": "address"
        },
        {
          "indexed": false,
          "name": "pot",
          "type": "uint256"
        }
      ],
      "name": "DISTRIBUTE",
      "type": "event",
      "signature": "0x40749561de6aca84f85739f425fc79a9fc76d56a57dc6ec6253d55ecb386e7ce"
    },
    {
      "anonymous": false,
      "inputs": [
        {
          "indexed": false,
          "name": "round_index",
          "type": "uint256"
        },
        {
          "indexed": false,
          "name": "sender",
          "type": "address"
        },
        {
          "indexed": false,
          "name": "trueAnswerList",
          "type": "string[]"
        }
      ],
      "name": "START",
      "type": "event",
      "signature": "0x3ff541ee0b04b8f762bbcc4b3d86beb98d153624f7a9f51082a13a754678c32c"
    },
    {
      "anonymous": false,
      "inputs": [
        {
          "indexed": false,
          "name": "round_index",
          "type": "uint256"
        },
        {
          "indexed": false,
          "name": "winner",
          "type": "address"
        },
        {
          "indexed": false,
          "name": "pot",
          "type": "uint256"
        },
        {
          "indexed": false,
          "name": "next_round",
          "type": "uint256"
        }
      ],
      "name": "END",
      "type": "event",
      "signature": "0x33c481d31f350664201ec71202a57b8cce0cd2ddc126cdb7c83d6361acace040"
    },
    {
      "constant": false,
      "inputs": [],
      "name": "participation",
      "outputs": [
        {
          "name": "result",
          "type": "bool"
        }
      ],
      "payable": true,
      "stateMutability": "payable",
      "type": "function",
      "signature": "0xd3240bd2"
    },
    {
      "constant": true,
      "inputs": [],
      "name": "getPot",
      "outputs": [
        {
          "name": "pot",
          "type": "uint256"
        }
      ],
      "payable": false,
      "stateMutability": "view",
      "type": "function",
      "signature": "0x403c9fa8"
    },
    {
      "constant": true,
      "inputs": [
        {
          "name": "index",
          "type": "uint256"
        }
      ],
      "name": "getParticipantInfo",
      "outputs": [
        {
          "name": "participant",
          "type": "address"
        },
        {
          "name": "participationTime",
          "type": "uint256"
        },
        {
          "name": "summitTime",
          "type": "uint256"
        },
        {
          "name": "playTime",
          "type": "uint256"
        },
        {
          "name": "answerList",
          "type": "string[]"
        },
        {
          "name": "answerCount",
          "type": "uint256"
        }
      ],
      "payable": false,
      "stateMutability": "view",
      "type": "function",
      "signature": "0xb110c731"
    },
    {
      "constant": false,
      "inputs": [
        {
          "name": "summitWords",
          "type": "string"
        },
        {
          "name": "summitAnswerList",
          "type": "string[]"
        }
      ],
      "name": "summit",
      "outputs": [
        {
          "name": "result",
          "type": "bool"
        }
      ],
      "payable": false,
      "stateMutability": "nonpayable",
      "type": "function",
      "signature": "0xac815a5d"
    },
    {
      "constant": false,
      "inputs": [],
      "name": "distribute",
      "outputs": [],
      "payable": false,
      "stateMutability": "nonpayable",
      "type": "function",
      "signature": "0xe4fc6b6d"
    },
    {
      "constant": false,
      "inputs": [],
      "name": "_popAndSearchWinner",
      "outputs": [
        {
          "name": "",
          "type": "address"
        }
      ],
      "payable": false,
      "stateMutability": "nonpayable",
      "type": "function",
      "signature": "0x0322e7d0"
    },
    {
      "constant": false,
      "inputs": [
        {
          "name": "trueAnswerWords",
          "type": "string"
        },
        {
          "name": "trueAnswerList",
          "type": "string[]"
        }
      ],
      "name": "startGame",
      "outputs": [
        {
          "name": "",
          "type": "bool"
        }
      ],
      "payable": false,
      "stateMutability": "nonpayable",
      "type": "function",
      "signature": "0x2cc6e29a"
    },
    {
      "constant": true,
      "inputs": [
        {
          "name": "index",
          "type": "uint256"
        }
      ],
      "name": "getGameInfo",
      "outputs": [
        {
          "name": "gameRound",
          "type": "uint256"
        },
        {
          "name": "trueAnswerList",
          "type": "string[]"
        }
      ],
      "payable": false,
      "stateMutability": "view",
      "type": "function",
      "signature": "0x47e1d550"
    }
  ],
  "bytecode": "0x608060405234801561001057600080fd5b5033600860006101000a81548173ffffffffffffffffffffffffffffffffffffffff021916908373ffffffffffffffffffffffffffffffffffffffff160217905550612496806100616000396000f3fe608060405260043610610099576000357c0100000000000000000000000000000000000000000000000000000000900463ffffffff1680630322e7d01461009e5780632cc6e29a146100c9578063403c9fa81461010657806347e1d550146101315780638da5cb5b1461016f578063ac815a5d1461019a578063b110c731146101d7578063d3240bd214610219578063e4fc6b6d14610237575b600080fd5b3480156100aa57600080fd5b506100b361024e565b6040516100c09190611fdc565b60405180910390f35b3480156100d557600080fd5b506100f060048036036100eb9190810190611ce8565b610464565b6040516100fd919061205f565b60405180910390f35b34801561011257600080fd5b5061011b610518565b604051610128919061213a565b60405180910390f35b34801561013d57600080fd5b5061015860048036036101539190810190611d54565b610522565b60405161016692919061220f565b60405180910390f35b34801561017b57600080fd5b506101846106f8565b6040516101919190611fdc565b60405180910390f35b3480156101a657600080fd5b506101c160048036036101bc9190810190611ce8565b61071e565b6040516101ce919061205f565b60405180910390f35b3480156101e357600080fd5b506101fe60048036036101f99190810190611d54565b6107cc565b60405161021096959493929190611ff7565b60405180910390f35b61022161099a565b60405161022e919061205f565b60405180910390f35b34801561024357600080fd5b5061024c610af1565b005b60006102586119a9565b6000809050600062057e40905060008060045490505b600354811015610449576006600082815260200190815260200160002060c06040519081016040529081600082015481526020016001820154815260200160028201548152602001600382015481526020016004820160009054906101000a900473ffffffffffffffffffffffffffffffffffffffff1673ffffffffffffffffffffffffffffffffffffffff1673ffffffffffffffffffffffffffffffffffffffff16815260200160058201805480602002602001604051908101604052809291908181526020016000905b828210156103f6578382906000526020600020018054600181600116156101000203166002900480601f0160208091040260200160405190810160405280929190818152602001828054600181600116156101000203166002900480156103e25780601f106103b7576101008083540402835291602001916103e2565b820191906000526020600020905b8154815290600101906020018083116103c557829003601f168201915b50505050508152602001906001019061033a565b50505050815250509450838560600151101580156104175750846040015183115b15610432578460600151935084604001519250846080015191505b61043b81610bc8565b50808060010191505061026e565b50600060048190555060006003819055508094505050505090565b60006104708383610c40565b15156104b1576040517f08c379a00000000000000000000000000000000000000000000000000000000081526004016104a89061209a565b60405180910390fd5b6000600154905060016000806101000a81548160ff0219169083151502179055507f3ff541ee0b04b8f762bbcc4b3d86beb98d153624f7a9f51082a13a754678c32c81338560405161050593929190612155565b60405180910390a1600191505092915050565b6000600554905090565b6000606061052e6119f6565b60076000858152602001908152602001600020606060405190810160405290816000820154815260200160018201805480602002602001604051908101604052809291908181526020016000905b82821015610638578382906000526020600020018054600181600116156101000203166002900480601f0160208091040260200160405190810160405280929190818152602001828054600181600116156101000203166002900480156106245780601f106105f957610100808354040283529160200191610624565b820191906000526020600020905b81548152906001019060200180831161060757829003601f168201915b50505050508152602001906001019061057c565b505050508152602001600282018054600181600116156101000203166002900480601f0160208091040260200160405190810160405280929190818152602001828054600181600116156101000203166002900480156106d95780601f106106ae576101008083540402835291602001916106d9565b820191906000526020600020905b8154815290600101906020018083116106bc57829003601f168201915b5050505050815250509050806000015192508060200151915050915091565b600860009054906101000a900473ffffffffffffffffffffffffffffffffffffffff1681565b6000600115156000809054906101000a900460ff161515141515610777576040517f08c379a000000000000000000000000000000000000000000000000000000000815260040161076e9061207a565b60405180910390fd5b6107818383610cd0565b15156107c2576040517f08c379a00000000000000000000000000000000000000000000000000000000081526004016107b99061211a565b60405180910390fd5b6001905092915050565b600080600080606060006107de6119a9565b6006600089815260200190815260200160002060c06040519081016040529081600082015481526020016001820154815260200160028201548152602001600382015481526020016004820160009054906101000a900473ffffffffffffffffffffffffffffffffffffffff1673ffffffffffffffffffffffffffffffffffffffff1673ffffffffffffffffffffffffffffffffffffffff16815260200160058201805480602002602001604051908101604052809291908181526020016000905b8282101561095c578382906000526020600020018054600181600116156101000203166002900480601f0160208091040260200160405190810160405280929190818152602001828054600181600116156101000203166002900480156109485780601f1061091d57610100808354040283529160200191610948565b820191906000526020600020905b81548152906001019060200180831161092b57829003601f168201915b5050505050815260200190600101906108a0565b50505050815250509050806080015196508060000151955080602001519450806040015193508060a001519250806060015191505091939550919395565b60006611c37937e08000341415156109e7576040517f08c379a00000000000000000000000000000000000000000000000000000000081526004016109de906120da565b60405180910390fd5b600115156000809054906101000a900460ff161515141515610a3e576040517f08c379a0000000000000000000000000000000000000000000000000000000008152600401610a35906120ba565b60405180910390fd5b610a46610fa9565b1515610a87576040517f08c379a0000000000000000000000000000000000000000000000000000000008152600401610a7e906120fa565b60405180910390fd5b6611c37937e08000600560008282540192505081905550600060015490507f44c9d19fd0e696a4baba85d685148ad8a5607aa35f4592f6d7026b9f026146cb81600160035403333442604051610ae195949392919061223f565b60405180910390a1600191505090565b6000610afb61024e565b9050600060015490507f40749561de6aca84f85739f425fc79a9fc76d56a57dc6ec6253d55ecb386e7ce8183600554604051610b3993929190612193565b60405180910390a1610b4d826005546110b4565b50600060058190555060008060006101000a81548160ff0219169083151502179055506001600081548092919060010191905055507f33c481d31f350664201ec71202a57b8cce0cd2ddc126cdb7c83d6361acace040818360055460018501604051610bbc94939291906121ca565b60405180910390a15050565b6000600660008381526020019081526020016000206000808201600090556001820160009055600282016000905560038201600090556004820160006101000a81549073ffffffffffffffffffffffffffffffffffffffff0219169055600582016000610c359190611a18565b505060019050919050565b6000610c4a6119f6565b60015481600001818152505083816040018190525082816020018190525080600760006001548152602001908152602001600020600082015181600001556020820151816001019080519060200190610ca4929190611a39565b506040820151816002019080519060200190610cc1929190611a99565b50905050600191505092915050565b6000806000905060006001549050610ce661117d565b9150610cf06119a9565b6006600084815260200190815260200160002060c06040519081016040529081600082015481526020016001820154815260200160028201548152602001600382015481526020016004820160009054906101000a900473ffffffffffffffffffffffffffffffffffffffff1673ffffffffffffffffffffffffffffffffffffffff1673ffffffffffffffffffffffffffffffffffffffff16815260200160058201805480602002602001604051908101604052809291908181526020016000905b82821015610e6e578382906000526020600020018054600181600116156101000203166002900480601f016020809104026020016040519081016040528092919081815260200182805460018160011615610100020316600290048015610e5a5780601f10610e2f57610100808354040283529160200191610e5a565b820191906000526020600020905b815481529060010190602001808311610e3d57829003601f168201915b505050505081526020019060010190610db2565b50505050815250509050428160200181815250508060000151816020015103816040018181525050848160a00181905250610ea9868661121d565b81606001818152505080600660008581526020019081526020016000206000820151816000015560208201518160010155604082015181600201556060820151816003015560808201518160040160006101000a81548173ffffffffffffffffffffffffffffffffffffffff021916908373ffffffffffffffffffffffffffffffffffffffff16021790555060a0820151816005019080519060200190610f51929190611a39565b509050507fcd3da99e2107a36ded1a22af815b271eba2467ba618e20d68a645cbf3c01a51382843384606001518560400151604051610f9495949392919061223f565b60405180910390a16001935050505092915050565b6000610fb36119a9565b33816080019073ffffffffffffffffffffffffffffffffffffffff16908173ffffffffffffffffffffffffffffffffffffffff168152505042816000018181525050806006600060035481526020019081526020016000206000820151816000015560208201518160010155604082015181600201556060820151816003015560808201518160040160006101000a81548173ffffffffffffffffffffffffffffffffffffffff021916908373ffffffffffffffffffffffffffffffffffffffff16021790555060a0820151816005019080519060200190611096929190611a39565b50905050600360008154809291906001019190505550600191505090565b60008060009050600081840390508473ffffffffffffffffffffffffffffffffffffffff166108fc829081150290604051600060405180830381858888f19350505050158015611108573d6000803e3d6000fd5b50600860009054906101000a900473ffffffffffffffffffffffffffffffffffffffff1673ffffffffffffffffffffffffffffffffffffffff166108fc839081150290604051600060405180830381858888f19350505050158015611171573d6000803e3d6000fd5b50809250505092915050565b60008060009050600060045490505b600354811015611215573373ffffffffffffffffffffffffffffffffffffffff166006600083815260200190815260200160002060040160009054906101000a900473ffffffffffffffffffffffffffffffffffffffff1673ffffffffffffffffffffffffffffffffffffffff16141561120857809150611215565b808060010191505061118c565b508091505090565b60006112276119f6565b600760006001548152602001908152602001600020606060405190810160405290816000820154815260200160018201805480602002602001604051908101604052809291908181526020016000905b82821015611333578382906000526020600020018054600181600116156101000203166002900480601f01602080910402602001604051908101604052809291908181526020018280546001816001161561010002031660029004801561131f5780601f106112f45761010080835404028352916020019161131f565b820191906000526020600020905b81548152906001019060200180831161130257829003601f168201915b505050505081526020019060010190611277565b505050508152602001600282018054600181600116156101000203166002900480601f0160208091040260200160405190810160405280929190818152602001828054600181600116156101000203166002900480156113d45780601f106113a9576101008083540402835291602001916113d4565b820191906000526020600020905b8154815290600101906020018083116113b757829003601f168201915b50505050508152505090506000809050600115156113f18661141d565b15151415611406578160200151519050611412565b61140f846116e2565b90505b809250505092915050565b60006114276119f6565b600760006001548152602001908152602001600020606060405190810160405290816000820154815260200160018201805480602002602001604051908101604052809291908181526020016000905b82821015611533578382906000526020600020018054600181600116156101000203166002900480601f01602080910402602001604051908101604052809291908181526020018280546001816001161561010002031660029004801561151f5780601f106114f45761010080835404028352916020019161151f565b820191906000526020600020905b81548152906001019060200180831161150257829003601f168201915b505050505081526020019060010190611477565b505050508152602001600282018054600181600116156101000203166002900480601f0160208091040260200160405190810160405280929190818152602001828054600181600116156101000203166002900480156115d45780601f106115a9576101008083540402835291602001916115d4565b820191906000526020600020905b8154815290600101906020018083116115b757829003601f168201915b505050505081525050905080604001516040516020018082805190602001908083835b60208310151561161c57805182526020820191506020810190506020830392506115f7565b6001836020036101000a03801982511681845116808217855250505050505090500191505060405160208183030381529060405280519060200120836040516020018082805190602001908083835b602083101515611690578051825260208201915060208101905060208303925061166b565b6001836020036101000a0380198251168184511680821785525050505050509050019150506040516020818303038152906040528051906020012014156116db5760019150506116dd565b505b919050565b60006116ec6119f6565b600760006001548152602001908152602001600020606060405190810160405290816000820154815260200160018201805480602002602001604051908101604052809291908181526020016000905b828210156117f8578382906000526020600020018054600181600116156101000203166002900480601f0160208091040260200160405190810160405280929190818152602001828054600181600116156101000203166002900480156117e45780601f106117b9576101008083540402835291602001916117e4565b820191906000526020600020905b8154815290600101906020018083116117c757829003601f168201915b50505050508152602001906001019061173c565b505050508152602001600282018054600181600116156101000203166002900480601f0160208091040260200160405190810160405280929190818152602001828054600181600116156101000203166002900480156118995780601f1061186e57610100808354040283529160200191611899565b820191906000526020600020905b81548152906001019060200180831161187c57829003601f168201915b5050505050815250509050600080905060008090505b82602001515181101561191c576118e08360200151828151811015156118d157fe5b90602001906020020151611927565b61190086838151811015156118f157fe5b90602001906020020151611927565b141561190f5781806001019250505b80806001019150506118af565b508092505050919050565b600080826040516020018082805190602001908083835b602083101515611963578051825260208201915060208101905060208303925061193e565b6001836020036101000a03801982511681845116808217855250505050505090500191505060405160208183030381529060405280519060200120905080915050919050565b60c06040519081016040528060008152602001600081526020016000815260200160008152602001600073ffffffffffffffffffffffffffffffffffffffff168152602001606081525090565b6060604051908101604052806000815260200160608152602001606081525090565b5080546000825590600052602060002090810190611a369190611b19565b50565b828054828255906000526020600020908101928215611a88579160200282015b82811115611a87578251829080519060200190611a77929190611a99565b5091602001919060010190611a59565b5b509050611a959190611b19565b5090565b828054600181600116156101000203166002900490600052602060002090601f016020900481019282601f10611ada57805160ff1916838001178555611b08565b82800160010185558215611b08579182015b82811115611b07578251825591602001919060010190611aec565b5b509050611b159190611b45565b5090565b611b4291905b80821115611b3e5760008181611b359190611b6a565b50600101611b1f565b5090565b90565b611b6791905b80821115611b63576000816000905550600101611b4b565b5090565b90565b50805460018160011615610100020316600290046000825580601f10611b905750611baf565b601f016020900490600052602060002090810190611bae9190611b45565b5b50565b600082601f8301121515611bc557600080fd5b8135611bd8611bd3826122bf565b612292565b9150818183526020840193506020810190508360005b83811015611c1e5781358601611c048882611c28565b845260208401935060208301925050600181019050611bee565b5050505092915050565b600082601f8301121515611c3b57600080fd5b8135611c4e611c49826122e7565b612292565b91508082526020830160208301858383011115611c6a57600080fd5b611c75838284612409565b50505092915050565b600082601f8301121515611c9157600080fd5b8135611ca4611c9f82612313565b612292565b91508082526020830160208301858383011115611cc057600080fd5b611ccb838284612409565b50505092915050565b6000611ce082356123c9565b905092915050565b60008060408385031215611cfb57600080fd5b600083013567ffffffffffffffff811115611d1557600080fd5b611d2185828601611c7e565b925050602083013567ffffffffffffffff811115611d3e57600080fd5b611d4a85828601611bb2565b9150509250929050565b600060208284031215611d6657600080fd5b6000611d7484828501611cd4565b91505092915050565b611d86816123d3565b82525050565b611d9581612381565b82525050565b611da48161236f565b82525050565b6000611db58261234c565b80845260208401935083602082028501611dce8561233f565b60005b84811015611e07578383038852611de9838351611e27565b9250611df482612362565b9150602088019750600181019050611dd1565b508196508694505050505092915050565b611e2181612393565b82525050565b6000611e3282612357565b808452611e46816020860160208601612418565b611e4f8161244b565b602085010191505092915050565b6000600982527f54696d65206f76657200000000000000000000000000000000000000000000006020830152604082019050919050565b6000601982527f4661696c20746f20616464206e65772067616d6520496e666f000000000000006020830152604082019050919050565b6000601e82527f546865726520617265206e6f2067616d657320696e2070726f677265737300006020830152604082019050919050565b6000600e82527f4e6f7420656e6f756768204554480000000000000000000000000000000000006020830152604082019050919050565b6000602282527f4661696c20746f206164642061206e6577205061727469636970616e7420496e60208301527f666f0000000000000000000000000000000000000000000000000000000000006040830152606082019050919050565b6000601d82527f4661696c20746f206164642061206e65772053756d6d697420496e666f0000006020830152604082019050919050565b611fd6816123bf565b82525050565b6000602082019050611ff16000830184611d8c565b92915050565b600060c08201905061200c6000830189611d9b565b6120196020830188611fcd565b6120266040830187611fcd565b6120336060830186611fcd565b81810360808301526120458185611daa565b905061205460a0830184611fcd565b979650505050505050565b60006020820190506120746000830184611e18565b92915050565b6000602082019050818103600083015261209381611e5d565b9050919050565b600060208201905081810360008301526120b381611e94565b9050919050565b600060208201905081810360008301526120d381611ecb565b9050919050565b600060208201905081810360008301526120f381611f02565b9050919050565b6000602082019050818103600083015261211381611f39565b9050919050565b6000602082019050818103600083015261213381611f96565b9050919050565b600060208201905061214f6000830184611fcd565b92915050565b600060608201905061216a6000830186611fcd565b6121776020830185611d7d565b81810360408301526121898184611daa565b9050949350505050565b60006060820190506121a86000830186611fcd565b6121b56020830185611d7d565b6121c26040830184611fcd565b949350505050565b60006080820190506121df6000830187611fcd565b6121ec6020830186611d7d565b6121f96040830185611fcd565b6122066060830184611fcd565b95945050505050565b60006040820190506122246000830185611fcd565b81810360208301526122368184611daa565b90509392505050565b600060a0820190506122546000830188611fcd565b6122616020830187611fcd565b61226e6040830186611d7d565b61227b6060830185611fcd565b6122886080830184611fcd565b9695505050505050565b6000604051905081810181811067ffffffffffffffff821117156122b557600080fd5b8060405250919050565b600067ffffffffffffffff8211156122d657600080fd5b602082029050602081019050919050565b600067ffffffffffffffff8211156122fe57600080fd5b601f19601f8301169050602081019050919050565b600067ffffffffffffffff82111561232a57600080fd5b601f19601f8301169050602081019050919050565b6000602082019050919050565b600081519050919050565b600081519050919050565b6000602082019050919050565b600061237a8261239f565b9050919050565b600061238c8261239f565b9050919050565b60008115159050919050565b600073ffffffffffffffffffffffffffffffffffffffff82169050919050565b6000819050919050565b6000819050919050565b60006123de826123e5565b9050919050565b60006123f0826123f7565b9050919050565b60006124028261239f565b9050919050565b82818337600083830152505050565b60005b8381101561243657808201518184015260208101905061241b565b83811115612445576000848401525b50505050565b6000601f19601f830116905091905056fea265627a7a72305820b3954064e8d1007bb970692c6bdf2de390102d76b3c4aa1e6c349dae7bc19a616c6578706572696d656e74616cf50037",
  "source": "// SPDX-License-Identifier: MIT\r\npragma solidity >=0.4.18 <0.9.0;\r\npragma experimental ABIEncoderV2;\r\n\r\n\r\ncontract Wordgame {\r\n\r\n    //   -  , \r\n    struct ParticipantInfo {\r\n        uint256 participationTime; //      ->          \r\n        uint256 summitTime;\r\n        uint256 playTime;\r\n        uint256 answerCount;   \r\n        address payable participant; //     (payable  )\r\n        // ToDo :    \r\n        string[] answer_list;\r\n        }\r\n\r\n    struct GameStatusInfo {\r\n        uint256 gameRound;       //    \r\n        string[] answerList;   //   \r\n        string answerWords;    //  \r\n    }\r\n\r\n    bool private _gameStatusFlag; //  on/off  \r\n\r\n    uint256 private _gameTail; // GameStatusInfo   queue tail\r\n    uint256 private _gameHead; // GameStautsINfo   queue head\r\n\r\n    /*        */\r\n    uint256 private _tail; // ParticipantInfo   queue tail\r\n    uint256 private _head; // ParticipantInfo   queue head\r\n\r\n    // pot   \r\n    uint256 private _pot; \r\n\r\n    mapping (uint256 => ParticipantInfo) private _participants; // mapping (_KeyType => _ValueType)\r\n    mapping (uint256 => GameStatusInfo) private _gamestatus;    \r\n    \r\n    // TODO :  ?\r\n    address payable public owner; // public     getter \r\n\r\n    // uint256 constant TIME_LIMIT = 3600; //    ->  ?\r\n    // uint256 constant TIME_WARNING = 3000; //     ->  ?\r\n    uint256 constant internal PARTICIPATION_FEE_AMOUNT = 5 * 10 **15; // 0.005 ether\r\n    uint256 constant internal SUMMIT_FEE_AMOUNT = 2 * 10 **15; // 0.002 ether\r\n\r\n\r\n    event PARTICIPATION(uint256 round_index, uint256 participant_index, address participant, uint256 fee, uint256 participationTime);\r\n    event SUMMIT(uint256 round_index, uint256 participant_index, address participant, uint256 answerCount, uint256 playtime);\r\n    event DISTRIBUTE(uint256 round_index, address winner, uint256 pot);\r\n    event START(uint256 round_index, address sender, string[] trueAnswerList);\r\n    event END(uint256 round_index, address winner, uint256 pot, uint256 next_round);\r\n//     event DRAW(uint256 index, address bettor, uint256 amount, bytes1 challenges, bytes1 answer, uint256 answerBlockNumber);\r\n//     event REFUND(uint256 index, address bettor, uint256 amount, bytes1 challenges, uint256 answerBlockNumber);\r\n\r\n\r\n    // Participantion () ... Bet\r\n    function participation() public payable returns (bool result) {\r\n        // Check the proper ether is sent\r\n        require(msg.value == PARTICIPATION_FEE_AMOUNT, \"Not enough ETH\");\r\n        \r\n        require(_gameStatusFlag == true, \"There are no games in progress\");\r\n        // require(_searchParticipationIndex(), \"Already paricipated\");\r\n\r\n\r\n        // Push bet to the queue\r\n        require(pushParticipantInfo(), \"Fail to add a new Participant Info\");\r\n\r\n        _pot += PARTICIPATION_FEE_AMOUNT;\r\n        uint256 round_index = _gameTail;\r\n\r\n\r\n        // emit event\r\n        emit PARTICIPATION(round_index, _tail-1, msg.sender, msg.value, now);\r\n\r\n        return true;\r\n    }\r\n\r\n    function _searchParticipationIndex() private view returns (bool) {\r\n    for (uint i = _head; i <_tail; i++) {\r\n        if (_participants[i].participant == msg.sender) {\r\n            return false;\r\n        }\r\n        else {\r\n            return true;\r\n        }\r\n        }\r\n    }\r\n\r\n    // save the participant to the queue\r\n    function pushParticipantInfo() internal returns (bool) {\r\n        ParticipantInfo memory p;\r\n        p.participant = msg.sender;\r\n        p.participationTime = now; //   \r\n        \r\n        _participants[_tail] = p;\r\n        _tail++;\r\n\r\n        return true;\r\n    }\r\n    \r\n    //  pot   \r\n        function getPot() public view returns (uint256 pot) { // view :   \r\n        return _pot;\r\n    }\r\n\r\n    //          ->    \r\n    constructor() public {\r\n        owner = msg.sender; // msg.sender     \r\n    }\r\n\r\n    //@getBetInfo : _bets ()    \r\n    function getParticipantInfo(uint256 index) public view returns (address participant, uint256 participationTime, uint256 summitTime, uint256 playTime, string[] memory answerList, uint256 answerCount) {\r\n        ParticipantInfo memory p = _participants[index];\r\n        participant = p.participant;\r\n        participationTime = p.participationTime;\r\n        summitTime =p.summitTime;\r\n        playTime = p.playTime;\r\n        answerList = p.answer_list;\r\n        answerCount = p.answerCount;\r\n    }\r\n\r\n\r\n    //    \r\n    function _wordHash(string memory word) internal pure returns (bytes32) {\r\n        bytes32 wordhash = keccak256(abi.encodePacked(word));\r\n        return wordhash;\r\n    }\r\n\r\n\r\n    function _checkConcatWord(string memory summitWords) private view returns (bool) {\r\n        GameStatusInfo memory g  = _gamestatus[_gameTail];\r\n        if (keccak256(abi.encodePacked(summitWords)) == keccak256(abi.encodePacked(g.answerWords)))\r\n    return true;\r\n    }\r\n\r\n    function _checkWord(string[] memory summitAnswerList) private view returns (uint256) {\r\n        GameStatusInfo memory g  = _gamestatus[_gameTail];\r\n        uint256 _count = 0;\r\n        for(uint i=0; i<g.answerList.length; i++) {\r\n            if(_wordHash(summitAnswerList[i]) == _wordHash(g.answerList[i])) {\r\n                _count++;\r\n            }\r\n        }\r\n        return _count;\r\n    }\r\n\r\n\r\n    function _checkAnswerCount(string memory summitWords, string[] memory summitAnswerList) private view returns (uint256) {\r\n        GameStatusInfo memory g  = _gamestatus[_gameTail];\r\n\r\n        uint256 _count = 0;\r\n        if(_checkConcatWord(summitWords) == true) {\r\n            _count = g.answerList.length;\r\n        }\r\n        else {\r\n            _count = _checkWord(summitAnswerList);\r\n        }   \r\n\r\n        return _count;\r\n    }\r\n\r\n\r\n    function summit(string memory summitWords, string[] memory summitAnswerList) public returns (bool result) {\r\n        // Push summit info to the queue\r\n        require(_gameStatusFlag == true, \"Time over\");\r\n        require(_pushSummitInfo(summitWords, summitAnswerList), \"Fail to add a new Summit Info\");\r\n\r\n        return true;\r\n    }\r\n\r\n    // search senders's participation queue index\r\n    function _searchIndex() private view returns (uint256) {\r\n        uint256 index = 0;\r\n        for (uint i = _head; i <_tail; i++) {\r\n            if (_participants[i].participant == msg.sender) {\r\n                index = i;\r\n                break;\r\n            }\r\n        }\r\n        return index;\r\n    }\r\n\r\n    // save the summit info to the participants queue\r\n    function _pushSummitInfo(string memory summitWords, string[] memory summitAnswerList) internal returns (bool) {   // ParticipantInfo summit info \r\n        uint256 index = 0;\r\n        uint256 round_index = _gameTail;\r\n\r\n\r\n        index = _searchIndex();\r\n        ParticipantInfo memory p = _participants[index];\r\n\r\n        p.summitTime = now;\r\n        p.playTime = p.summitTime - p.participationTime;\r\n        p.answer_list = summitAnswerList;\r\n        p.answerCount = _checkAnswerCount(summitWords, summitAnswerList);\r\n        _participants[index] = p;\r\n\r\n        // emit event\r\n        emit SUMMIT(round_index, index, msg.sender, p.answerCount, p.playTime);\r\n\r\n        return true;\r\n    }\r\n\r\n    function transferAfterPayingFee(address payable addr, uint256 amount) internal returns (uint256) {\r\n        uint256 fee = 0;\r\n        uint256 amountWithoutFee = amount - fee; \r\n\r\n        // transfer to addr\r\n        addr.transfer(amountWithoutFee);\r\n        // transfer to owner\r\n        owner.transfer(fee);\r\n\r\n        return amountWithoutFee;\r\n    }\r\n\r\n    // distribute function -> 1  pot money \r\n    function distribute() public {\r\n        // require(msg.sender == admin);\r\n        // 1 \r\n        address payable winner = _popAndSearchWinner();\r\n        uint256 index = _gameTail;\r\n\r\n        // \r\n        emit DISTRIBUTE(index, winner, _pot);\r\n\r\n        //  \r\n        transferAfterPayingFee(winner, _pot);\r\n        _pot = 0;\r\n\r\n        _gameStatusFlag = false; //   \r\n        _gameTail++;\r\n\r\n        emit END(index, winner, _pot, index+1);\r\n    }\r\n\r\n\r\n    function _popBet(uint256 index) internal returns (bool) {\r\n        delete _participants[index];\r\n        return true;\r\n    }\r\n\r\n    function _popAndSearchWinner() public returns (address payable) {\r\n        ParticipantInfo memory p;\r\n        uint256 answerCount = 0;\r\n        uint256 playTime = 360000;\r\n        address payable winner;\r\n\r\n        for(uint256 i = _head; i < _tail; i++) {\r\n            p = _participants[i];\r\n            if (p.answerCount >= answerCount && playTime > p.playTime) {\r\n                answerCount = p.answerCount;\r\n                playTime = p.playTime;\r\n                winner = p.participant;\r\n            }\r\n            _popBet(i);\r\n        }\r\n        _head = 0;\r\n        _tail = 0;\r\n        return winner;\r\n    }\r\n\r\n\r\n    function _pushAnswerInfo(string memory trueAnswerWords, string[] memory trueAnswerList) private returns (bool) {\r\n        GameStatusInfo memory g;\r\n        g.gameRound = _gameTail;\r\n        g.answerWords = trueAnswerWords;\r\n        g.answerList = trueAnswerList;\r\n\r\n        _gamestatus[_gameTail] = g;\r\n\r\n        return true;\r\n    }\r\n\r\n    function startGame(string memory trueAnswerWords, string[] memory trueAnswerList) public returns (bool) {\r\n        // require(msg.sender == admin, 'Not admin address');\r\n\r\n        require(_pushAnswerInfo(trueAnswerWords, trueAnswerList), 'Fail to add new game Info');\r\n\r\n        uint256 index = _gameTail;\r\n        _gameStatusFlag = true;\r\n\r\n        emit START(index, msg.sender, trueAnswerList);\r\n\r\n        return true;\r\n    }\r\n\r\n    function getGameInfo(uint256 index) public view returns (uint256 gameRound, string[] memory trueAnswerList) {\r\n        GameStatusInfo memory g = _gamestatus[index];\r\n        gameRound = g.gameRound;\r\n        trueAnswerList = g.answerList;\r\n    }\r\n\r\n}",
  "sourcePath": "C:/Users/s3lab/Desktop/word_game_smart_contract/contracts/Wordgame.sol",
  "compiler": {
    "name": "solc",
    "version": "0.5.0+commit.1d4f565a.Emscripten.clang"
  },
  "schemaVersion": "3.0.1",
  "updatedAt": "2022-05-31T17:37:51.160Z",
  "devdoc": {
    "methods": {}
  },
  "userdoc": {
    "methods": {}
  }
}