{
  "contractName": "Wordgame",
  "abi": [
    {
      "constant": true,
      "inputs": [],
      "name": "owner",
      "outputs": [
        {
          "name": "",
          "type": "address"
        }
      ],
      "payable": false,
      "stateMutability": "view",
      "type": "function",
      "signature": "0x8da5cb5b"
    },
    {
      "inputs": [],
      "payable": false,
      "stateMutability": "nonpayable",
      "type": "constructor",
      "signature": "constructor"
    },
    {
      "anonymous": false,
      "inputs": [
        {
          "indexed": false,
          "name": "index",
          "type": "uint256"
        },
        {
          "indexed": false,
          "name": "participant",
          "type": "address"
        },
        {
          "indexed": false,
          "name": "fee",
          "type": "uint256"
        },
        {
          "indexed": false,
          "name": "participationTime",
          "type": "uint256"
        }
      ],
      "name": "PARTICIPATION",
      "type": "event",
      "signature": "0x9b79c921c71b645119f4529c5ff3ada53034a2f2c6a16b4b7dd0c83d93ced391"
    },
    {
      "anonymous": false,
      "inputs": [
        {
          "indexed": false,
          "name": "index",
          "type": "uint256"
        },
        {
          "indexed": false,
          "name": "participant",
          "type": "address"
        },
        {
          "indexed": false,
          "name": "answerCount",
          "type": "uint256"
        },
        {
          "indexed": false,
          "name": "playtime",
          "type": "uint256"
        }
      ],
      "name": "SUMMIT",
      "type": "event",
      "signature": "0xcf7e10d2a5612d23ed40dad39d902ad42a44391b9991234aa6985e80de960820"
    },
    {
      "anonymous": false,
      "inputs": [
        {
          "indexed": false,
          "name": "index",
          "type": "uint256"
        },
        {
          "indexed": false,
          "name": "winner",
          "type": "address"
        },
        {
          "indexed": false,
          "name": "pot",
          "type": "uint256"
        }
      ],
      "name": "DISTRIBUTE",
      "type": "event",
      "signature": "0x40749561de6aca84f85739f425fc79a9fc76d56a57dc6ec6253d55ecb386e7ce"
    },
    {
      "anonymous": false,
      "inputs": [
        {
          "indexed": false,
          "name": "index",
          "type": "uint256"
        },
        {
          "indexed": false,
          "name": "sender",
          "type": "address"
        },
        {
          "indexed": false,
          "name": "trueAnswerList",
          "type": "string[]"
        }
      ],
      "name": "START",
      "type": "event",
      "signature": "0x3ff541ee0b04b8f762bbcc4b3d86beb98d153624f7a9f51082a13a754678c32c"
    },
    {
      "constant": false,
      "inputs": [],
      "name": "participation",
      "outputs": [
        {
          "name": "result",
          "type": "bool"
        }
      ],
      "payable": true,
      "stateMutability": "payable",
      "type": "function",
      "signature": "0xd3240bd2"
    },
    {
      "constant": true,
      "inputs": [],
      "name": "getPot",
      "outputs": [
        {
          "name": "pot",
          "type": "uint256"
        }
      ],
      "payable": false,
      "stateMutability": "view",
      "type": "function",
      "signature": "0x403c9fa8"
    },
    {
      "constant": true,
      "inputs": [
        {
          "name": "index",
          "type": "uint256"
        }
      ],
      "name": "getParticipantInfo",
      "outputs": [
        {
          "name": "participant",
          "type": "address"
        },
        {
          "name": "participationTime",
          "type": "uint256"
        },
        {
          "name": "summitTime",
          "type": "uint256"
        },
        {
          "name": "playTime",
          "type": "uint256"
        },
        {
          "name": "answerList",
          "type": "string[]"
        },
        {
          "name": "answerCount",
          "type": "uint256"
        }
      ],
      "payable": false,
      "stateMutability": "view",
      "type": "function",
      "signature": "0xb110c731"
    },
    {
      "constant": true,
      "inputs": [
        {
          "name": "word1",
          "type": "string"
        },
        {
          "name": "word2",
          "type": "string"
        },
        {
          "name": "word3",
          "type": "string"
        }
      ],
      "name": "wordListHash",
      "outputs": [
        {
          "name": "",
          "type": "bytes32"
        }
      ],
      "payable": false,
      "stateMutability": "pure",
      "type": "function",
      "signature": "0x4398aec5"
    },
    {
      "constant": true,
      "inputs": [
        {
          "name": "summitWords",
          "type": "string"
        },
        {
          "name": "answerWords",
          "type": "string"
        },
        {
          "name": "summitAnswerList",
          "type": "string[]"
        },
        {
          "name": "answerList",
          "type": "string[]"
        }
      ],
      "name": "checkAnswerCount",
      "outputs": [
        {
          "name": "",
          "type": "uint256"
        }
      ],
      "payable": false,
      "stateMutability": "view",
      "type": "function",
      "signature": "0x210f2986"
    },
    {
      "constant": false,
      "inputs": [
        {
          "name": "summitWords",
          "type": "string"
        },
        {
          "name": "answerWords",
          "type": "string"
        },
        {
          "name": "summitAnswerList",
          "type": "string[]"
        },
        {
          "name": "answerList",
          "type": "string[]"
        }
      ],
      "name": "summit",
      "outputs": [
        {
          "name": "result",
          "type": "bool"
        }
      ],
      "payable": false,
      "stateMutability": "nonpayable",
      "type": "function",
      "signature": "0x5f8bf24d"
    },
    {
      "constant": false,
      "inputs": [],
      "name": "distribute",
      "outputs": [],
      "payable": false,
      "stateMutability": "nonpayable",
      "type": "function",
      "signature": "0xe4fc6b6d"
    },
    {
      "constant": false,
      "inputs": [],
      "name": "_popAndSearchWinner",
      "outputs": [
        {
          "name": "",
          "type": "address"
        }
      ],
      "payable": false,
      "stateMutability": "nonpayable",
      "type": "function",
      "signature": "0x0322e7d0"
    },
    {
      "constant": false,
      "inputs": [
        {
          "name": "trueAnswerList",
          "type": "string[]"
        }
      ],
      "name": "startGame",
      "outputs": [
        {
          "name": "",
          "type": "bool"
        }
      ],
      "payable": false,
      "stateMutability": "nonpayable",
      "type": "function",
      "signature": "0x36cd88bb"
    },
    {
      "constant": true,
      "inputs": [
        {
          "name": "index",
          "type": "uint256"
        }
      ],
      "name": "getGameInfo",
      "outputs": [
        {
          "name": "gameRound",
          "type": "uint256"
        },
        {
          "name": "trueAnswerList",
          "type": "string[]"
        }
      ],
      "payable": false,
      "stateMutability": "view",
      "type": "function",
      "signature": "0x47e1d550"
    }
  ],
  "bytecode": "0x608060405260018055600160025534801561001957600080fd5b5033600860006101000a81548173ffffffffffffffffffffffffffffffffffffffff021916908373ffffffffffffffffffffffffffffffffffffffff1602179055506120798061006a6000396000f3fe6080604052600436106100af576000357c0100000000000000000000000000000000000000000000000000000000900463ffffffff1680630322e7d0146100b4578063210f2986146100df57806336cd88bb1461011c578063403c9fa8146101595780634398aec51461018457806347e1d550146101c15780635f8bf24d146101ff5780638da5cb5b1461023c578063b110c73114610267578063d3240bd2146102a9578063e4fc6b6d146102c7575b600080fd5b3480156100c057600080fd5b506100c96102de565b6040516100d69190611c2d565b60405180910390f35b3480156100eb57600080fd5b50610106600480360361010191908101906118aa565b6104f4565b6040516101139190611d66565b60405180910390f35b34801561012857600080fd5b50610143600480360361013e9190810190611869565b610533565b6040516101509190611cb0565b60405180910390f35b34801561016557600080fd5b5061016e610641565b60405161017b9190611d66565b60405180910390f35b34801561019057600080fd5b506101ab60048036036101a6919081019061196d565b61064b565b6040516101b89190611ccb565b60405180910390f35b3480156101cd57600080fd5b506101e860048036036101e39190810190611a04565b610779565b6040516101f6929190611e3b565b60405180910390f35b34801561020b57600080fd5b50610226600480360361022191908101906118aa565b6108ac565b6040516102339190611cb0565b60405180910390f35b34801561024857600080fd5b50610251610907565b60405161025e9190611c2d565b60405180910390f35b34801561027357600080fd5b5061028e60048036036102899190810190611a04565b61092d565b6040516102a096959493929190611c48565b60405180910390f35b6102b1610afb565b6040516102be9190611cb0565b60405180910390f35b3480156102d357600080fd5b506102dc610bf1565b005b60006102e8611532565b6000809050600062057e40905060008060045490505b6003548110156104d9576006600082815260200190815260200160002060c06040519081016040529081600082015481526020016001820154815260200160028201548152602001600382015481526020016004820160009054906101000a900473ffffffffffffffffffffffffffffffffffffffff1673ffffffffffffffffffffffffffffffffffffffff1673ffffffffffffffffffffffffffffffffffffffff16815260200160058201805480602002602001604051908101604052809291908181526020016000905b82821015610486578382906000526020600020018054600181600116156101000203166002900480601f0160208091040260200160405190810160405280929190818152602001828054600181600116156101000203166002900480156104725780601f1061044757610100808354040283529160200191610472565b820191906000526020600020905b81548152906001019060200180831161045557829003601f168201915b5050505050815260200190600101906103ca565b50505050815250509450838560600151101580156104a75750846040015183115b156104c2578460600151935084604001519250846080015191505b6104cb81610d0d565b5080806001019150506102fe565b50600060048190555060006003819055508094505050505090565b60008060009050600115156105098787610d85565b1515141561051a5782519050610527565b6105248484610e85565b90505b80915050949350505050565b6000600860009054906101000a900473ffffffffffffffffffffffffffffffffffffffff1673ffffffffffffffffffffffffffffffffffffffff163373ffffffffffffffffffffffffffffffffffffffff1614151561059157600080fd5b61059a82610f02565b15156105db576040517f08c379a00000000000000000000000000000000000000000000000000000000081526004016105d290611ce6565b60405180910390fd5b6000600154905060016000806101000a81548160ff0219169083151502179055507f3ff541ee0b04b8f762bbcc4b3d86beb98d153624f7a9f51082a13a754678c32c81338560405161062f93929190611d81565b60405180910390a16001915050919050565b6000600554905090565b6000808484846040516020018084805190602001908083835b6020831015156106895780518252602082019150602081019050602083039250610664565b6001836020036101000a03801982511681845116808217855250505050505090500183805190602001908083835b6020831015156106dc57805182526020820191506020810190506020830392506106b7565b6001836020036101000a03801982511681845116808217855250505050505090500182805190602001908083835b60208310151561072f578051825260208201915060208101905060208303925061070a565b6001836020036101000a0380198251168184511680821785525050505050509050019350505050604051602081830303815290604052805190602001209050809150509392505050565b6000606061078561157f565b600760008581526020019081526020016000206040805190810160405290816000820154815260200160018201805480602002602001604051908101604052809291908181526020016000905b8282101561088e578382906000526020600020018054600181600116156101000203166002900480601f01602080910402602001604051908101604052809291908181526020018280546001816001161561010002031660029004801561087a5780601f1061084f5761010080835404028352916020019161087a565b820191906000526020600020905b81548152906001019060200180831161085d57829003601f168201915b5050505050815260200190600101906107d2565b50505050815250509050806000015192508060200151915050915091565b60006108ba85858585610f69565b15156108fb576040517f08c379a00000000000000000000000000000000000000000000000000000000081526004016108f290611d46565b60405180910390fd5b60019050949350505050565b600860009054906101000a900473ffffffffffffffffffffffffffffffffffffffff1681565b6000806000806060600061093f611532565b6006600089815260200190815260200160002060c06040519081016040529081600082015481526020016001820154815260200160028201548152602001600382015481526020016004820160009054906101000a900473ffffffffffffffffffffffffffffffffffffffff1673ffffffffffffffffffffffffffffffffffffffff1673ffffffffffffffffffffffffffffffffffffffff16815260200160058201805480602002602001604051908101604052809291908181526020016000905b82821015610abd578382906000526020600020018054600181600116156101000203166002900480601f016020809104026020016040519081016040528092919081815260200182805460018160011615610100020316600290048015610aa95780601f10610a7e57610100808354040283529160200191610aa9565b820191906000526020600020905b815481529060010190602001808311610a8c57829003601f168201915b505050505081526020019060010190610a01565b50505050815250509050806080015196508060000151955080602001519450806040015193508060a001519250806060015191505091939550919395565b60006611c37937e0800034141515610b48576040517f08c379a0000000000000000000000000000000000000000000000000000000008152600401610b3f90611d06565b60405180910390fd5b610b5061123c565b1515610b91576040517f08c379a0000000000000000000000000000000000000000000000000000000008152600401610b8890611d26565b60405180910390fd5b6611c37937e080006005600082825401925050819055507f9b79c921c71b645119f4529c5ff3ada53034a2f2c6a16b4b7dd0c83d93ced391600160035403333442604051610be29493929190611df6565b60405180910390a16001905090565b600860009054906101000a900473ffffffffffffffffffffffffffffffffffffffff1673ffffffffffffffffffffffffffffffffffffffff163373ffffffffffffffffffffffffffffffffffffffff16141515610c4d57600080fd5b6000610c576102de565b9050600060015490507f40749561de6aca84f85739f425fc79a9fc76d56a57dc6ec6253d55ecb386e7ce8183600554604051610c9593929190611dbf565b60405180910390a1610ca982600554611347565b50600060058190555060008060006101000a81548160ff0219169083151502179055507f40749561de6aca84f85739f425fc79a9fc76d56a57dc6ec6253d55ecb386e7ce8183600554604051610d0193929190611dbf565b60405180910390a15050565b6000600660008381526020019081526020016000206000808201600090556001820160009055600282016000905560038201600090556004820160006101000a81549073ffffffffffffffffffffffffffffffffffffffff0219169055600582016000610d7a9190611599565b505060019050919050565b6000816040516020018082805190602001908083835b602083101515610dc05780518252602082019150602081019050602083039250610d9b565b6001836020036101000a03801982511681845116808217855250505050505090500191505060405160208183030381529060405280519060200120836040516020018082805190602001908083835b602083101515610e345780518252602082019150602081019050602083039250610e0f565b6001836020036101000a038019825116818451168082178552505050505050905001915050604051602081830303815290604052805190602001201415610e7e5760019050610e7f565b5b92915050565b6000806000905060008090505b8351811015610ef757610ebb8482815181101515610eac57fe5b90602001906020020151611410565b610edb8683815181101515610ecc57fe5b90602001906020020151611410565b1415610eea5781806001019250505b8080600101915050610e92565b508091505092915050565b6000610f0c61157f565b6001548160000151505082816020018190525080600760006001548152602001908152602001600020600082015181600001556020820151816001019080519060200190610f5b9291906115ba565b509050506001915050919050565b60008060009050610f78611492565b9050610f82611532565b6006600083815260200190815260200160002060c06040519081016040529081600082015481526020016001820154815260200160028201548152602001600382015481526020016004820160009054906101000a900473ffffffffffffffffffffffffffffffffffffffff1673ffffffffffffffffffffffffffffffffffffffff1673ffffffffffffffffffffffffffffffffffffffff16815260200160058201805480602002602001604051908101604052809291908181526020016000905b82821015611100578382906000526020600020018054600181600116156101000203166002900480601f0160208091040260200160405190810160405280929190818152602001828054600181600116156101000203166002900480156110ec5780601f106110c1576101008083540402835291602001916110ec565b820191906000526020600020905b8154815290600101906020018083116110cf57829003601f168201915b505050505081526020019060010190611044565b50505050815250509050428160200181815250508060000151816020015103816040018181525050848160a0018190525061113d878787876104f4565b81606001818152505080600660008481526020019081526020016000206000820151816000015560208201518160010155604082015181600201556060820151816003015560808201518160040160006101000a81548173ffffffffffffffffffffffffffffffffffffffff021916908373ffffffffffffffffffffffffffffffffffffffff16021790555060a08201518160050190805190602001906111e59291906115ba565b509050507fcf7e10d2a5612d23ed40dad39d902ad42a44391b9991234aa6985e80de9608208233836060015184604001516040516112269493929190611df6565b60405180910390a1600192505050949350505050565b6000611246611532565b33816080019073ffffffffffffffffffffffffffffffffffffffff16908173ffffffffffffffffffffffffffffffffffffffff168152505042816000018181525050806006600060035481526020019081526020016000206000820151816000015560208201518160010155604082015181600201556060820151816003015560808201518160040160006101000a81548173ffffffffffffffffffffffffffffffffffffffff021916908373ffffffffffffffffffffffffffffffffffffffff16021790555060a08201518160050190805190602001906113299291906115ba565b50905050600360008154809291906001019190505550600191505090565b60008060009050600081840390508473ffffffffffffffffffffffffffffffffffffffff166108fc829081150290604051600060405180830381858888f1935050505015801561139b573d6000803e3d6000fd5b50600860009054906101000a900473ffffffffffffffffffffffffffffffffffffffff1673ffffffffffffffffffffffffffffffffffffffff166108fc839081150290604051600060405180830381858888f19350505050158015611404573d6000803e3d6000fd5b50809250505092915050565b600080826040516020018082805190602001908083835b60208310151561144c5780518252602082019150602081019050602083039250611427565b6001836020036101000a03801982511681845116808217855250505050505090500191505060405160208183030381529060405280519060200120905080915050919050565b60008060009050600060045490505b60035481101561152a573373ffffffffffffffffffffffffffffffffffffffff166006600083815260200190815260200160002060040160009054906101000a900473ffffffffffffffffffffffffffffffffffffffff1673ffffffffffffffffffffffffffffffffffffffff16141561151d5780915061152a565b80806001019150506114a1565b508091505090565b60c06040519081016040528060008152602001600081526020016000815260200160008152602001600073ffffffffffffffffffffffffffffffffffffffff168152602001606081525090565b604080519081016040528060008152602001606081525090565b50805460008255906000526020600020908101906115b7919061161a565b50565b828054828255906000526020600020908101928215611609579160200282015b828111156116085782518290805190602001906115f8929190611646565b50916020019190600101906115da565b5b509050611616919061161a565b5090565b61164391905b8082111561163f576000818161163691906116c6565b50600101611620565b5090565b90565b828054600181600116156101000203166002900490600052602060002090601f016020900481019282601f1061168757805160ff19168380011785556116b5565b828001600101855582156116b5579182015b828111156116b4578251825591602001919060010190611699565b5b5090506116c2919061170e565b5090565b50805460018160011615610100020316600290046000825580601f106116ec575061170b565b601f01602090049060005260206000209081019061170a919061170e565b5b50565b61173091905b8082111561172c576000816000905550600101611714565b5090565b90565b600082601f830112151561174657600080fd5b813561175961175482611e98565b611e6b565b9150818183526020840193506020810190508360005b8381101561179f578135860161178588826117a9565b84526020840193506020830192505060018101905061176f565b5050505092915050565b600082601f83011215156117bc57600080fd5b81356117cf6117ca82611ec0565b611e6b565b915080825260208301602083018583830111156117eb57600080fd5b6117f6838284611fec565b50505092915050565b600082601f830112151561181257600080fd5b813561182561182082611eec565b611e6b565b9150808252602083016020830185838301111561184157600080fd5b61184c838284611fec565b50505092915050565b60006118618235611fac565b905092915050565b60006020828403121561187b57600080fd5b600082013567ffffffffffffffff81111561189557600080fd5b6118a184828501611733565b91505092915050565b600080600080608085870312156118c057600080fd5b600085013567ffffffffffffffff8111156118da57600080fd5b6118e6878288016117ff565b945050602085013567ffffffffffffffff81111561190357600080fd5b61190f878288016117ff565b935050604085013567ffffffffffffffff81111561192c57600080fd5b61193887828801611733565b925050606085013567ffffffffffffffff81111561195557600080fd5b61196187828801611733565b91505092959194509250565b60008060006060848603121561198257600080fd5b600084013567ffffffffffffffff81111561199c57600080fd5b6119a8868287016117ff565b935050602084013567ffffffffffffffff8111156119c557600080fd5b6119d1868287016117ff565b925050604084013567ffffffffffffffff8111156119ee57600080fd5b6119fa868287016117ff565b9150509250925092565b600060208284031215611a1657600080fd5b6000611a2484828501611855565b91505092915050565b611a3681611fb6565b82525050565b611a4581611f5a565b82525050565b611a5481611f48565b82525050565b6000611a6582611f25565b80845260208401935083602082028501611a7e85611f18565b60005b84811015611ab7578383038852611a99838351611ae6565b9250611aa482611f3b565b9150602088019750600181019050611a81565b508196508694505050505092915050565b611ad181611f6c565b82525050565b611ae081611f78565b82525050565b6000611af182611f30565b808452611b05816020860160208601611ffb565b611b0e8161202e565b602085010191505092915050565b6000601982527f4661696c20746f20616464206e65772067616d6520496e666f000000000000006020830152604082019050919050565b6000600e82527f4e6f7420656e6f756768204554480000000000000000000000000000000000006020830152604082019050919050565b6000602282527f4661696c20746f206164642061206e6577205061727469636970616e7420496e60208301527f666f0000000000000000000000000000000000000000000000000000000000006040830152606082019050919050565b6000601d82527f4661696c20746f206164642061206e65772053756d6d697420496e666f0000006020830152604082019050919050565b611c2781611fa2565b82525050565b6000602082019050611c426000830184611a3c565b92915050565b600060c082019050611c5d6000830189611a4b565b611c6a6020830188611c1e565b611c776040830187611c1e565b611c846060830186611c1e565b8181036080830152611c968185611a5a565b9050611ca560a0830184611c1e565b979650505050505050565b6000602082019050611cc56000830184611ac8565b92915050565b6000602082019050611ce06000830184611ad7565b92915050565b60006020820190508181036000830152611cff81611b1c565b9050919050565b60006020820190508181036000830152611d1f81611b53565b9050919050565b60006020820190508181036000830152611d3f81611b8a565b9050919050565b60006020820190508181036000830152611d5f81611be7565b9050919050565b6000602082019050611d7b6000830184611c1e565b92915050565b6000606082019050611d966000830186611c1e565b611da36020830185611a2d565b8181036040830152611db58184611a5a565b9050949350505050565b6000606082019050611dd46000830186611c1e565b611de16020830185611a2d565b611dee6040830184611c1e565b949350505050565b6000608082019050611e0b6000830187611c1e565b611e186020830186611a2d565b611e256040830185611c1e565b611e326060830184611c1e565b95945050505050565b6000604082019050611e506000830185611c1e565b8181036020830152611e628184611a5a565b90509392505050565b6000604051905081810181811067ffffffffffffffff82111715611e8e57600080fd5b8060405250919050565b600067ffffffffffffffff821115611eaf57600080fd5b602082029050602081019050919050565b600067ffffffffffffffff821115611ed757600080fd5b601f19601f8301169050602081019050919050565b600067ffffffffffffffff821115611f0357600080fd5b601f19601f8301169050602081019050919050565b6000602082019050919050565b600081519050919050565b600081519050919050565b6000602082019050919050565b6000611f5382611f82565b9050919050565b6000611f6582611f82565b9050919050565b60008115159050919050565b6000819050919050565b600073ffffffffffffffffffffffffffffffffffffffff82169050919050565b6000819050919050565b6000819050919050565b6000611fc182611fc8565b9050919050565b6000611fd382611fda565b9050919050565b6000611fe582611f82565b9050919050565b82818337600083830152505050565b60005b83811015612019578082015181840152602081019050611ffe565b83811115612028576000848401525b50505050565b6000601f19601f830116905091905056fea265627a7a72305820cfd9c73fb734e6d69b9d9c86fe71fc2db4d1ec1751e0e7fc3a3ce3cf660b445a6c6578706572696d656e74616cf50037",
  "source": "// SPDX-License-Identifier: MIT\r\npragma solidity >=0.4.18 <0.9.0;\r\npragma experimental ABIEncoderV2;\r\n\r\n\r\ncontract Wordgame {\r\n\r\n    //   -  , \r\n    struct ParticipantInfo {\r\n        uint256 participationTime; //      ->          \r\n        uint256 summitTime;\r\n        uint256 playTime;\r\n        uint256 answerCount;   \r\n        address payable participant; //     (payable  )\r\n        // ToDo :    \r\n        string[] answer_list;\r\n        }\r\n\r\n    struct GameStatusInfo {\r\n        uint256 gameRound;       //    \r\n        string[] answerList;   //   \r\n    }\r\n\r\n    bool private _gameStatusFlag; //  on/off  \r\n\r\n    uint256 private _gameTail = 1; // GameStatusInfo   queue tail\r\n    uint256 private _gameHead = 1; // GameStautsINfo   queue head\r\n\r\n    /*        */\r\n    uint256 private _tail; // ParticipantInfo   queue tail\r\n    uint256 private _head; // ParticipantInfo   queue head\r\n\r\n    // pot   \r\n    uint256 private _pot; \r\n\r\n    mapping (uint256 => ParticipantInfo) private _participants; // mapping (_KeyType => _ValueType)\r\n    mapping (uint256 => GameStatusInfo) private _gamestatus;    \r\n    \r\n    // TODO :  ?\r\n    address payable public owner; // public     getter \r\n\r\n    // uint256 constant TIME_LIMIT = 3600; //    ->  ?\r\n    // uint256 constant TIME_WARNING = 3000; //     ->  ?\r\n    uint256 constant internal PARTICIPATION_FEE_AMOUNT = 5 * 10 **15; // 0.005 ether\r\n    uint256 constant internal SUMMIT_FEE_AMOUNT = 2 * 10 **15; // 0.002 ether\r\n\r\n\r\n    event PARTICIPATION(uint256 index, address participant, uint256 fee, uint256 participationTime);\r\n    event SUMMIT(uint256 index, address participant, uint256 answerCount, uint256 playtime);\r\n    event DISTRIBUTE(uint256 index, address winner, uint256 pot);\r\n    event START(uint256 index, address sender, string[] trueAnswerList);\r\n//     event DRAW(uint256 index, address bettor, uint256 amount, bytes1 challenges, bytes1 answer, uint256 answerBlockNumber);\r\n//     event REFUND(uint256 index, address bettor, uint256 amount, bytes1 challenges, uint256 answerBlockNumber);\r\n\r\n\r\n    // Participantion () ... Bet\r\n    function participation() public payable returns (bool result) {\r\n        // Check the proper ether is sent\r\n        require(msg.value == PARTICIPATION_FEE_AMOUNT, \"Not enough ETH\");\r\n\r\n        // Push bet to the queue\r\n        require(pushParticipantInfo(), \"Fail to add a new Participant Info\");\r\n\r\n        _pot += PARTICIPATION_FEE_AMOUNT;\r\n\r\n        // emit event\r\n        emit PARTICIPATION(_tail-1, msg.sender, msg.value, now);\r\n\r\n        return true;\r\n    }\r\n\r\n    // save the participant to the queue\r\n    function pushParticipantInfo() internal returns (bool) {\r\n        ParticipantInfo memory p;\r\n        p.participant = msg.sender;\r\n        p.participationTime = now; //   \r\n        \r\n        _participants[_tail] = p;\r\n        _tail++;\r\n\r\n        return true;\r\n    }\r\n    \r\n    //  pot   \r\n        function getPot() public view returns (uint256 pot) { // view :   \r\n        return _pot;\r\n    }\r\n\r\n    //          ->    \r\n    constructor() public {\r\n        owner = msg.sender; // msg.sender     \r\n    }\r\n\r\n    //@getBetInfo : _bets ()    \r\n    function getParticipantInfo(uint256 index) public view returns (address participant, uint256 participationTime, uint256 summitTime, uint256 playTime, string[] memory answerList, uint256 answerCount) {\r\n        ParticipantInfo memory p = _participants[index];\r\n        participant = p.participant;\r\n        participationTime = p.participationTime;\r\n        summitTime =p.summitTime;\r\n        playTime = p.playTime;\r\n        answerList = p.answer_list;\r\n        answerCount = p.answerCount;\r\n    }\r\n\r\n    /*\r\n      \r\n    1.    ->  keccak256 hash  ->     \r\n    2.      ->     \r\n    3.     keccak256 hash  \r\n    */\r\n\r\n\r\n    //    \r\n    function _wordHash(string memory word) internal pure returns (bytes32) {\r\n        bytes32 wordhash = keccak256(abi.encodePacked(word));\r\n        return wordhash;\r\n    }\r\n    \r\n    //      -> Test     ->  \r\n    function wordListHash(string memory word1, string memory word2, string memory word3) public pure returns (bytes32) {\r\n        bytes32 wordlisthash = keccak256(abi.encodePacked(word1, word2, word3));\r\n        return wordlisthash;\r\n    }\r\n\r\n    //   \r\n    function _checkConcatWord(string memory summitWords, string memory answerWords) private view returns (bool) {\r\n        if (keccak256(abi.encodePacked(summitWords)) == keccak256(abi.encodePacked(answerWords)))\r\n    return true;\r\n    }\r\n\r\n    //   \r\n    function _checkWord(string[] memory summitAnswerList, string[] memory answerList) private view returns (uint256) {\r\n        uint256 _count = 0;\r\n        for(uint i=0; i<answerList.length; i++) {\r\n            if(_wordHash(summitAnswerList[i]) == _wordHash(answerList[i])) {\r\n                _count++;\r\n            }\r\n        }\r\n        return _count;\r\n    }\r\n\r\n    //    <- Summit     => summit    private \r\n    function checkAnswerCount(string memory summitWords, string memory answerWords, string[] memory summitAnswerList, string[] memory answerList) public view returns (uint256) {\r\n        uint256 _count = 0;\r\n        if(_checkConcatWord(summitWords, answerWords) == true) {\r\n            _count = answerList.length;\r\n        }\r\n        else {\r\n            _count = _checkWord(summitAnswerList, answerList);\r\n        }   \r\n\r\n        return _count;\r\n    }\r\n    //       hash  ?\r\n\r\n    /*  \r\n    1. _pushSummitInfo()      \r\n    2.       participation     msg.sender  \r\n        _searchIndex()\r\n    3. summit   \r\n    */\r\n    function summit(string memory summitWords, string memory answerWords, string[] memory summitAnswerList, string[] memory answerList) public returns (bool result) {\r\n        // Push summit info to the queue\r\n        require(_pushSummitInfo(summitWords, answerWords, summitAnswerList, answerList), \"Fail to add a new Summit Info\");\r\n\r\n        return true;\r\n    }\r\n\r\n    // search senders's participation queue index\r\n    function _searchIndex() private view returns (uint256) {\r\n        uint256 index = 0;\r\n        for (uint i = _head; i <_tail; i++) {\r\n            if (_participants[i].participant == msg.sender) {\r\n                index = i;\r\n                break;\r\n            }\r\n        }\r\n        return index;\r\n    }\r\n\r\n    // save the summit info to the participants queue\r\n    function _pushSummitInfo(string memory summitWords, string memory answerWords, string[] memory summitAnswerList, string[] memory answerList) internal returns (bool) {   // ParticipantInfo summit info \r\n        uint256 index = 0;\r\n\r\n        index = _searchIndex();\r\n        ParticipantInfo memory p = _participants[index];\r\n\r\n        p.summitTime = now;\r\n        p.playTime = p.summitTime - p.participationTime;\r\n        p.answer_list = summitAnswerList;\r\n        p.answerCount = checkAnswerCount(summitWords, answerWords, summitAnswerList, answerList);\r\n        _participants[index] = p;\r\n\r\n        // emit event\r\n        emit SUMMIT(index, msg.sender, p.answerCount, p.playTime);\r\n\r\n        return true;\r\n    }\r\n\r\n    function transferAfterPayingFee(address payable addr, uint256 amount) internal returns (uint256) {\r\n        uint256 fee = 0;\r\n        uint256 amountWithoutFee = amount - fee; \r\n\r\n        // transfer to addr\r\n        addr.transfer(amountWithoutFee);\r\n        // transfer to owner\r\n        owner.transfer(fee);\r\n\r\n        return amountWithoutFee;\r\n    }\r\n\r\n    // distribute function -> 1  pot money \r\n    function distribute() public {\r\n        require(msg.sender == owner);\r\n        // 1 \r\n        address payable winner = _popAndSearchWinner();\r\n        uint256 index = _gameTail;\r\n\r\n        // \r\n        emit DISTRIBUTE(index, winner, _pot);\r\n\r\n        //  \r\n        transferAfterPayingFee(winner, _pot);\r\n        _pot = 0;\r\n\r\n        _gameStatusFlag = false;\r\n\r\n        emit DISTRIBUTE(index, winner, _pot);\r\n\r\n    }\r\n\r\n    function _popBet(uint256 index) internal returns (bool) {\r\n        delete _participants[index];\r\n        return true;\r\n    }\r\n\r\n    function _popAndSearchWinner() public returns (address payable) {\r\n        ParticipantInfo memory p;\r\n        uint256 answerCount = 0;\r\n        uint256 playTime = 360000;\r\n        address payable winner;\r\n\r\n        for(uint256 i = _head; i < _tail; i++) {\r\n            p = _participants[i];\r\n            if (p.answerCount >= answerCount && playTime > p.playTime) {\r\n                answerCount = p.answerCount;\r\n                playTime = p.playTime;\r\n                winner = p.participant;\r\n            }\r\n            _popBet(i);\r\n        }\r\n        _head = 0;\r\n        _tail = 0;\r\n        return winner;\r\n    }\r\n\r\n    // ------\r\n\r\n    // function gameStart() {\r\n\r\n    // }\r\n\r\n    // function gameEnd() {\r\n\r\n    // }\r\n\r\n\r\n    function _pushAnswerInfo(string[] memory trueAnswerList) private returns (bool) {\r\n        GameStatusInfo memory g;\r\n        g.gameRound == _gameTail;\r\n        g.answerList = trueAnswerList;\r\n\r\n        _gamestatus[_gameTail] = g;\r\n\r\n        return true;\r\n    }\r\n\r\n    function startGame(string[] memory trueAnswerList) public returns (bool) {\r\n        require(msg.sender == owner);\r\n\r\n        require(_pushAnswerInfo(trueAnswerList), 'Fail to add new game Info');\r\n\r\n        uint256 index = _gameTail;\r\n        _gameStatusFlag = true;\r\n\r\n        emit START(index, msg.sender, trueAnswerList);\r\n\r\n        return true;\r\n    }\r\n\r\n    function getGameInfo(uint256 index) public view returns (uint256 gameRound, string[] memory trueAnswerList) {\r\n        GameStatusInfo memory g = _gamestatus[index];\r\n        gameRound = g.gameRound;\r\n        trueAnswerList = g.answerList;\r\n    }\r\n\r\n}",
  "sourcePath": "C:/Users/s3lab/Desktop/word_game_smart_contract/contracts/Wordgame.sol",
  "compiler": {
    "name": "solc",
    "version": "0.5.0+commit.1d4f565a.Emscripten.clang"
  },
  "schemaVersion": "3.0.1",
  "updatedAt": "2022-05-30T06:59:14.145Z",
  "devdoc": {
    "methods": {}
  },
  "userdoc": {
    "methods": {}
  }
}