{
  "contractName": "Wordgame",
  "abi": [
    {
      "constant": true,
      "inputs": [],
      "name": "owner",
      "outputs": [
        {
          "name": "",
          "type": "address"
        }
      ],
      "payable": false,
      "stateMutability": "view",
      "type": "function",
      "signature": "0x8da5cb5b"
    },
    {
      "inputs": [],
      "payable": false,
      "stateMutability": "nonpayable",
      "type": "constructor",
      "signature": "constructor"
    },
    {
      "anonymous": false,
      "inputs": [
        {
          "indexed": false,
          "name": "round_index",
          "type": "uint256"
        },
        {
          "indexed": false,
          "name": "participant_index",
          "type": "uint256"
        },
        {
          "indexed": false,
          "name": "participant",
          "type": "address"
        },
        {
          "indexed": false,
          "name": "fee",
          "type": "uint256"
        },
        {
          "indexed": false,
          "name": "participationTime",
          "type": "uint256"
        }
      ],
      "name": "PARTICIPATION",
      "type": "event",
      "signature": "0x44c9d19fd0e696a4baba85d685148ad8a5607aa35f4592f6d7026b9f026146cb"
    },
    {
      "anonymous": false,
      "inputs": [
        {
          "indexed": false,
          "name": "round_index",
          "type": "uint256"
        },
        {
          "indexed": false,
          "name": "participant_index",
          "type": "uint256"
        },
        {
          "indexed": false,
          "name": "participant",
          "type": "address"
        },
        {
          "indexed": false,
          "name": "answerCount",
          "type": "uint256"
        },
        {
          "indexed": false,
          "name": "playtime",
          "type": "uint256"
        }
      ],
      "name": "SUMMIT",
      "type": "event",
      "signature": "0xcd3da99e2107a36ded1a22af815b271eba2467ba618e20d68a645cbf3c01a513"
    },
    {
      "anonymous": false,
      "inputs": [
        {
          "indexed": false,
          "name": "round_index",
          "type": "uint256"
        },
        {
          "indexed": false,
          "name": "winner",
          "type": "address"
        },
        {
          "indexed": false,
          "name": "pot",
          "type": "uint256"
        }
      ],
      "name": "DISTRIBUTE",
      "type": "event",
      "signature": "0x40749561de6aca84f85739f425fc79a9fc76d56a57dc6ec6253d55ecb386e7ce"
    },
    {
      "anonymous": false,
      "inputs": [
        {
          "indexed": false,
          "name": "round_index",
          "type": "uint256"
        },
        {
          "indexed": false,
          "name": "sender",
          "type": "address"
        },
        {
          "indexed": false,
          "name": "trueAnswerList",
          "type": "string[]"
        }
      ],
      "name": "START",
      "type": "event",
      "signature": "0x3ff541ee0b04b8f762bbcc4b3d86beb98d153624f7a9f51082a13a754678c32c"
    },
    {
      "anonymous": false,
      "inputs": [
        {
          "indexed": false,
          "name": "round_index",
          "type": "uint256"
        },
        {
          "indexed": false,
          "name": "winner",
          "type": "address"
        },
        {
          "indexed": false,
          "name": "pot",
          "type": "uint256"
        },
        {
          "indexed": false,
          "name": "next_round",
          "type": "uint256"
        }
      ],
      "name": "END",
      "type": "event",
      "signature": "0x33c481d31f350664201ec71202a57b8cce0cd2ddc126cdb7c83d6361acace040"
    },
    {
      "constant": false,
      "inputs": [],
      "name": "participation",
      "outputs": [
        {
          "name": "result",
          "type": "bool"
        }
      ],
      "payable": true,
      "stateMutability": "payable",
      "type": "function",
      "signature": "0xd3240bd2"
    },
    {
      "constant": true,
      "inputs": [],
      "name": "getPot",
      "outputs": [
        {
          "name": "pot",
          "type": "uint256"
        }
      ],
      "payable": false,
      "stateMutability": "view",
      "type": "function",
      "signature": "0x403c9fa8"
    },
    {
      "constant": true,
      "inputs": [
        {
          "name": "index",
          "type": "uint256"
        }
      ],
      "name": "getParticipantInfo",
      "outputs": [
        {
          "name": "participant",
          "type": "address"
        },
        {
          "name": "participationTime",
          "type": "uint256"
        },
        {
          "name": "summitTime",
          "type": "uint256"
        },
        {
          "name": "playTime",
          "type": "uint256"
        },
        {
          "name": "answerList",
          "type": "string[]"
        },
        {
          "name": "answerCount",
          "type": "uint256"
        }
      ],
      "payable": false,
      "stateMutability": "view",
      "type": "function",
      "signature": "0xb110c731"
    },
    {
      "constant": false,
      "inputs": [
        {
          "name": "summitWords",
          "type": "string"
        },
        {
          "name": "summitAnswerList",
          "type": "string[]"
        }
      ],
      "name": "summit",
      "outputs": [
        {
          "name": "result",
          "type": "bool"
        }
      ],
      "payable": false,
      "stateMutability": "nonpayable",
      "type": "function",
      "signature": "0xac815a5d"
    },
    {
      "constant": false,
      "inputs": [],
      "name": "distribute",
      "outputs": [],
      "payable": false,
      "stateMutability": "nonpayable",
      "type": "function",
      "signature": "0xe4fc6b6d"
    },
    {
      "constant": false,
      "inputs": [],
      "name": "_popAndSearchWinner",
      "outputs": [
        {
          "name": "",
          "type": "address"
        }
      ],
      "payable": false,
      "stateMutability": "nonpayable",
      "type": "function",
      "signature": "0x0322e7d0"
    },
    {
      "constant": false,
      "inputs": [
        {
          "name": "trueAnswerWords",
          "type": "string"
        },
        {
          "name": "trueAnswerList",
          "type": "string[]"
        }
      ],
      "name": "startGame",
      "outputs": [
        {
          "name": "",
          "type": "bool"
        }
      ],
      "payable": false,
      "stateMutability": "nonpayable",
      "type": "function",
      "signature": "0x2cc6e29a"
    },
    {
      "constant": true,
      "inputs": [
        {
          "name": "index",
          "type": "uint256"
        }
      ],
      "name": "getGameInfo",
      "outputs": [
        {
          "name": "gameRound",
          "type": "uint256"
        },
        {
          "name": "trueAnswerList",
          "type": "string[]"
        }
      ],
      "payable": false,
      "stateMutability": "view",
      "type": "function",
      "signature": "0x47e1d550"
    }
  ],
  "bytecode": "0x608060405234801561001057600080fd5b5033600860006101000a81548173ffffffffffffffffffffffffffffffffffffffff021916908373ffffffffffffffffffffffffffffffffffffffff16021790555061276d806100616000396000f3fe608060405260043610610099576000357c0100000000000000000000000000000000000000000000000000000000900463ffffffff1680630322e7d01461009e5780632cc6e29a146100c9578063403c9fa81461010657806347e1d550146101315780638da5cb5b1461016f578063ac815a5d1461019a578063b110c731146101d7578063d3240bd214610219578063e4fc6b6d14610237575b600080fd5b3480156100aa57600080fd5b506100b361024e565b6040516100c09190612253565b60405180910390f35b3480156100d557600080fd5b506100f060048036036100eb9190810190611eba565b610464565b6040516100fd91906122d6565b60405180910390f35b34801561011257600080fd5b5061011b610601565b6040516101289190612411565b60405180910390f35b34801561013d57600080fd5b5061015860048036036101539190810190611f26565b61060b565b6040516101669291906124e6565b60405180910390f35b34801561017b57600080fd5b506101846107e1565b6040516101919190612253565b60405180910390f35b3480156101a657600080fd5b506101c160048036036101bc9190810190611eba565b610807565b6040516101ce91906122d6565b60405180910390f35b3480156101e357600080fd5b506101fe60048036036101f99190810190611f26565b6108b5565b6040516102109695949392919061226e565b60405180910390f35b610221610a83565b60405161022e91906122d6565b60405180910390f35b34801561024357600080fd5b5061024c610bda565b005b6000610258611b7b565b6000809050600062057e40905060008060045490505b600354811015610449576006600082815260200190815260200160002060c06040519081016040529081600082015481526020016001820154815260200160028201548152602001600382015481526020016004820160009054906101000a900473ffffffffffffffffffffffffffffffffffffffff1673ffffffffffffffffffffffffffffffffffffffff1673ffffffffffffffffffffffffffffffffffffffff16815260200160058201805480602002602001604051908101604052809291908181526020016000905b828210156103f6578382906000526020600020018054600181600116156101000203166002900480601f0160208091040260200160405190810160405280929190818152602001828054600181600116156101000203166002900480156103e25780601f106103b7576101008083540402835291602001916103e2565b820191906000526020600020905b8154815290600101906020018083116103c557829003601f168201915b50505050508152602001906001019061033a565b50505050815250509450838560600151101580156104175750846040015183115b15610432578460600151935084604001519250846080015191505b61043b81610d9a565b50808060010191505061026e565b50600060048190555060006003819055508094505050505090565b6000600860009054906101000a900473ffffffffffffffffffffffffffffffffffffffff1673ffffffffffffffffffffffffffffffffffffffff163373ffffffffffffffffffffffffffffffffffffffff161415156104f8576040517f08c379a00000000000000000000000000000000000000000000000000000000081526004016104ef90612371565b60405180910390fd5b600015156000809054906101000a900460ff16151514151561054f576040517f08c379a0000000000000000000000000000000000000000000000000000000008152600401610546906123b1565b60405180910390fd5b6105598383610e12565b151561059a576040517f08c379a000000000000000000000000000000000000000000000000000000000815260040161059190612331565b60405180910390fd5b6000600154905060016000806101000a81548160ff0219169083151502179055507f3ff541ee0b04b8f762bbcc4b3d86beb98d153624f7a9f51082a13a754678c32c8133856040516105ee9392919061242c565b60405180910390a1600191505092915050565b6000600554905090565b60006060610617611bc8565b60076000858152602001908152602001600020606060405190810160405290816000820154815260200160018201805480602002602001604051908101604052809291908181526020016000905b82821015610721578382906000526020600020018054600181600116156101000203166002900480601f01602080910402602001604051908101604052809291908181526020018280546001816001161561010002031660029004801561070d5780601f106106e25761010080835404028352916020019161070d565b820191906000526020600020905b8154815290600101906020018083116106f057829003601f168201915b505050505081526020019060010190610665565b505050508152602001600282018054600181600116156101000203166002900480601f0160208091040260200160405190810160405280929190818152602001828054600181600116156101000203166002900480156107c25780601f10610797576101008083540402835291602001916107c2565b820191906000526020600020905b8154815290600101906020018083116107a557829003601f168201915b5050505050815250509050806000015192508060200151915050915091565b600860009054906101000a900473ffffffffffffffffffffffffffffffffffffffff1681565b6000600115156000809054906101000a900460ff161515141515610860576040517f08c379a000000000000000000000000000000000000000000000000000000000815260040161085790612311565b60405180910390fd5b61086a8383610ea2565b15156108ab576040517f08c379a00000000000000000000000000000000000000000000000000000000081526004016108a2906123f1565b60405180910390fd5b6001905092915050565b600080600080606060006108c7611b7b565b6006600089815260200190815260200160002060c06040519081016040529081600082015481526020016001820154815260200160028201548152602001600382015481526020016004820160009054906101000a900473ffffffffffffffffffffffffffffffffffffffff1673ffffffffffffffffffffffffffffffffffffffff1673ffffffffffffffffffffffffffffffffffffffff16815260200160058201805480602002602001604051908101604052809291908181526020016000905b82821015610a45578382906000526020600020018054600181600116156101000203166002900480601f016020809104026020016040519081016040528092919081815260200182805460018160011615610100020316600290048015610a315780601f10610a0657610100808354040283529160200191610a31565b820191906000526020600020905b815481529060010190602001808311610a1457829003601f168201915b505050505081526020019060010190610989565b50505050815250509050806080015196508060000151955080602001519450806040015193508060a001519250806060015191505091939550919395565b60006611c37937e0800034141515610ad0576040517f08c379a0000000000000000000000000000000000000000000000000000000008152600401610ac790612391565b60405180910390fd5b600115156000809054906101000a900460ff161515141515610b27576040517f08c379a0000000000000000000000000000000000000000000000000000000008152600401610b1e90612351565b60405180910390fd5b610b2f61117b565b1515610b70576040517f08c379a0000000000000000000000000000000000000000000000000000000008152600401610b67906123d1565b60405180910390fd5b6611c37937e08000600560008282540192505081905550600060015490507f44c9d19fd0e696a4baba85d685148ad8a5607aa35f4592f6d7026b9f026146cb81600160035403333442604051610bca959493929190612516565b60405180910390a1600191505090565b600860009054906101000a900473ffffffffffffffffffffffffffffffffffffffff1673ffffffffffffffffffffffffffffffffffffffff163373ffffffffffffffffffffffffffffffffffffffff16141515610c6c576040517f08c379a0000000000000000000000000000000000000000000000000000000008152600401610c6390612371565b60405180910390fd5b600115156000809054906101000a900460ff161515141515610cc3576040517f08c379a0000000000000000000000000000000000000000000000000000000008152600401610cba906122f1565b60405180910390fd5b6000610ccd61024e565b9050600060015490507f40749561de6aca84f85739f425fc79a9fc76d56a57dc6ec6253d55ecb386e7ce8183600554604051610d0b9392919061246a565b60405180910390a1610d1f82600554611286565b50600060058190555060008060006101000a81548160ff0219169083151502179055506001600081548092919060010191905055507f33c481d31f350664201ec71202a57b8cce0cd2ddc126cdb7c83d6361acace040818360055460018501604051610d8e94939291906124a1565b60405180910390a15050565b6000600660008381526020019081526020016000206000808201600090556001820160009055600282016000905560038201600090556004820160006101000a81549073ffffffffffffffffffffffffffffffffffffffff0219169055600582016000610e079190611bea565b505060019050919050565b6000610e1c611bc8565b60015481600001818152505083816040018190525082816020018190525080600760006001548152602001908152602001600020600082015181600001556020820151816001019080519060200190610e76929190611c0b565b506040820151816002019080519060200190610e93929190611c6b565b50905050600191505092915050565b6000806000905060006001549050610eb861134f565b9150610ec2611b7b565b6006600084815260200190815260200160002060c06040519081016040529081600082015481526020016001820154815260200160028201548152602001600382015481526020016004820160009054906101000a900473ffffffffffffffffffffffffffffffffffffffff1673ffffffffffffffffffffffffffffffffffffffff1673ffffffffffffffffffffffffffffffffffffffff16815260200160058201805480602002602001604051908101604052809291908181526020016000905b82821015611040578382906000526020600020018054600181600116156101000203166002900480601f01602080910402602001604051908101604052809291908181526020018280546001816001161561010002031660029004801561102c5780601f106110015761010080835404028352916020019161102c565b820191906000526020600020905b81548152906001019060200180831161100f57829003601f168201915b505050505081526020019060010190610f84565b50505050815250509050428160200181815250508060000151816020015103816040018181525050848160a0018190525061107b86866113ef565b81606001818152505080600660008581526020019081526020016000206000820151816000015560208201518160010155604082015181600201556060820151816003015560808201518160040160006101000a81548173ffffffffffffffffffffffffffffffffffffffff021916908373ffffffffffffffffffffffffffffffffffffffff16021790555060a0820151816005019080519060200190611123929190611c0b565b509050507fcd3da99e2107a36ded1a22af815b271eba2467ba618e20d68a645cbf3c01a51382843384606001518560400151604051611166959493929190612516565b60405180910390a16001935050505092915050565b6000611185611b7b565b33816080019073ffffffffffffffffffffffffffffffffffffffff16908173ffffffffffffffffffffffffffffffffffffffff168152505042816000018181525050806006600060035481526020019081526020016000206000820151816000015560208201518160010155604082015181600201556060820151816003015560808201518160040160006101000a81548173ffffffffffffffffffffffffffffffffffffffff021916908373ffffffffffffffffffffffffffffffffffffffff16021790555060a0820151816005019080519060200190611268929190611c0b565b50905050600360008154809291906001019190505550600191505090565b60008060009050600081840390508473ffffffffffffffffffffffffffffffffffffffff166108fc829081150290604051600060405180830381858888f193505050501580156112da573d6000803e3d6000fd5b50600860009054906101000a900473ffffffffffffffffffffffffffffffffffffffff1673ffffffffffffffffffffffffffffffffffffffff166108fc839081150290604051600060405180830381858888f19350505050158015611343573d6000803e3d6000fd5b50809250505092915050565b60008060009050600060045490505b6003548110156113e7573373ffffffffffffffffffffffffffffffffffffffff166006600083815260200190815260200160002060040160009054906101000a900473ffffffffffffffffffffffffffffffffffffffff1673ffffffffffffffffffffffffffffffffffffffff1614156113da578091506113e7565b808060010191505061135e565b508091505090565b60006113f9611bc8565b600760006001548152602001908152602001600020606060405190810160405290816000820154815260200160018201805480602002602001604051908101604052809291908181526020016000905b82821015611505578382906000526020600020018054600181600116156101000203166002900480601f0160208091040260200160405190810160405280929190818152602001828054600181600116156101000203166002900480156114f15780601f106114c6576101008083540402835291602001916114f1565b820191906000526020600020905b8154815290600101906020018083116114d457829003601f168201915b505050505081526020019060010190611449565b505050508152602001600282018054600181600116156101000203166002900480601f0160208091040260200160405190810160405280929190818152602001828054600181600116156101000203166002900480156115a65780601f1061157b576101008083540402835291602001916115a6565b820191906000526020600020905b81548152906001019060200180831161158957829003601f168201915b50505050508152505090506000809050600115156115c3866115ef565b151514156115d85781602001515190506115e4565b6115e1846118b4565b90505b809250505092915050565b60006115f9611bc8565b600760006001548152602001908152602001600020606060405190810160405290816000820154815260200160018201805480602002602001604051908101604052809291908181526020016000905b82821015611705578382906000526020600020018054600181600116156101000203166002900480601f0160208091040260200160405190810160405280929190818152602001828054600181600116156101000203166002900480156116f15780601f106116c6576101008083540402835291602001916116f1565b820191906000526020600020905b8154815290600101906020018083116116d457829003601f168201915b505050505081526020019060010190611649565b505050508152602001600282018054600181600116156101000203166002900480601f0160208091040260200160405190810160405280929190818152602001828054600181600116156101000203166002900480156117a65780601f1061177b576101008083540402835291602001916117a6565b820191906000526020600020905b81548152906001019060200180831161178957829003601f168201915b505050505081525050905080604001516040516020018082805190602001908083835b6020831015156117ee57805182526020820191506020810190506020830392506117c9565b6001836020036101000a03801982511681845116808217855250505050505090500191505060405160208183030381529060405280519060200120836040516020018082805190602001908083835b602083101515611862578051825260208201915060208101905060208303925061183d565b6001836020036101000a0380198251168184511680821785525050505050509050019150506040516020818303038152906040528051906020012014156118ad5760019150506118af565b505b919050565b60006118be611bc8565b600760006001548152602001908152602001600020606060405190810160405290816000820154815260200160018201805480602002602001604051908101604052809291908181526020016000905b828210156119ca578382906000526020600020018054600181600116156101000203166002900480601f0160208091040260200160405190810160405280929190818152602001828054600181600116156101000203166002900480156119b65780601f1061198b576101008083540402835291602001916119b6565b820191906000526020600020905b81548152906001019060200180831161199957829003601f168201915b50505050508152602001906001019061190e565b505050508152602001600282018054600181600116156101000203166002900480601f016020809104026020016040519081016040528092919081815260200182805460018160011615610100020316600290048015611a6b5780601f10611a4057610100808354040283529160200191611a6b565b820191906000526020600020905b815481529060010190602001808311611a4e57829003601f168201915b5050505050815250509050600080905060008090505b826020015151811015611aee57611ab2836020015182815181101515611aa357fe5b90602001906020020151611af9565b611ad28683815181101515611ac357fe5b90602001906020020151611af9565b1415611ae15781806001019250505b8080600101915050611a81565b508092505050919050565b600080826040516020018082805190602001908083835b602083101515611b355780518252602082019150602081019050602083039250611b10565b6001836020036101000a03801982511681845116808217855250505050505090500191505060405160208183030381529060405280519060200120905080915050919050565b60c06040519081016040528060008152602001600081526020016000815260200160008152602001600073ffffffffffffffffffffffffffffffffffffffff168152602001606081525090565b6060604051908101604052806000815260200160608152602001606081525090565b5080546000825590600052602060002090810190611c089190611ceb565b50565b828054828255906000526020600020908101928215611c5a579160200282015b82811115611c59578251829080519060200190611c49929190611c6b565b5091602001919060010190611c2b565b5b509050611c679190611ceb565b5090565b828054600181600116156101000203166002900490600052602060002090601f016020900481019282601f10611cac57805160ff1916838001178555611cda565b82800160010185558215611cda579182015b82811115611cd9578251825591602001919060010190611cbe565b5b509050611ce79190611d17565b5090565b611d1491905b80821115611d105760008181611d079190611d3c565b50600101611cf1565b5090565b90565b611d3991905b80821115611d35576000816000905550600101611d1d565b5090565b90565b50805460018160011615610100020316600290046000825580601f10611d625750611d81565b601f016020900490600052602060002090810190611d809190611d17565b5b50565b600082601f8301121515611d9757600080fd5b8135611daa611da582612596565b612569565b9150818183526020840193506020810190508360005b83811015611df05781358601611dd68882611dfa565b845260208401935060208301925050600181019050611dc0565b5050505092915050565b600082601f8301121515611e0d57600080fd5b8135611e20611e1b826125be565b612569565b91508082526020830160208301858383011115611e3c57600080fd5b611e478382846126e0565b50505092915050565b600082601f8301121515611e6357600080fd5b8135611e76611e71826125ea565b612569565b91508082526020830160208301858383011115611e9257600080fd5b611e9d8382846126e0565b50505092915050565b6000611eb282356126a0565b905092915050565b60008060408385031215611ecd57600080fd5b600083013567ffffffffffffffff811115611ee757600080fd5b611ef385828601611e50565b925050602083013567ffffffffffffffff811115611f1057600080fd5b611f1c85828601611d84565b9150509250929050565b600060208284031215611f3857600080fd5b6000611f4684828501611ea6565b91505092915050565b611f58816126aa565b82525050565b611f6781612658565b82525050565b611f7681612646565b82525050565b6000611f8782612623565b80845260208401935083602082028501611fa085612616565b60005b84811015611fd9578383038852611fbb838351611ff9565b9250611fc682612639565b9150602088019750600181019050611fa3565b508196508694505050505092915050565b611ff38161266a565b82525050565b60006120048261262e565b8084526120188160208601602086016126ef565b61202181612722565b602085010191505092915050565b6000601982527f5468657265206973206e6f206578697374696e672067616d65000000000000006020830152604082019050919050565b6000600982527f54696d65206f76657200000000000000000000000000000000000000000000006020830152604082019050919050565b6000601982527f4661696c20746f20616464206e65772067616d6520496e666f000000000000006020830152604082019050919050565b6000601e82527f546865726520617265206e6f2067616d657320696e2070726f677265737300006020830152604082019050919050565b6000601782527f4974206973206e6f74206f776e657220616464726573730000000000000000006020830152604082019050919050565b6000600e82527f4e6f7420656e6f756768204554480000000000000000000000000000000000006020830152604082019050919050565b6000601282527f416c72656164792067616d6520737461727400000000000000000000000000006020830152604082019050919050565b6000602282527f4661696c20746f206164642061206e6577205061727469636970616e7420496e60208301527f666f0000000000000000000000000000000000000000000000000000000000006040830152606082019050919050565b6000601d82527f4661696c20746f206164642061206e65772053756d6d697420496e666f0000006020830152604082019050919050565b61224d81612696565b82525050565b60006020820190506122686000830184611f5e565b92915050565b600060c0820190506122836000830189611f6d565b6122906020830188612244565b61229d6040830187612244565b6122aa6060830186612244565b81810360808301526122bc8185611f7c565b90506122cb60a0830184612244565b979650505050505050565b60006020820190506122eb6000830184611fea565b92915050565b6000602082019050818103600083015261230a8161202f565b9050919050565b6000602082019050818103600083015261232a81612066565b9050919050565b6000602082019050818103600083015261234a8161209d565b9050919050565b6000602082019050818103600083015261236a816120d4565b9050919050565b6000602082019050818103600083015261238a8161210b565b9050919050565b600060208201905081810360008301526123aa81612142565b9050919050565b600060208201905081810360008301526123ca81612179565b9050919050565b600060208201905081810360008301526123ea816121b0565b9050919050565b6000602082019050818103600083015261240a8161220d565b9050919050565b60006020820190506124266000830184612244565b92915050565b60006060820190506124416000830186612244565b61244e6020830185611f4f565b81810360408301526124608184611f7c565b9050949350505050565b600060608201905061247f6000830186612244565b61248c6020830185611f4f565b6124996040830184612244565b949350505050565b60006080820190506124b66000830187612244565b6124c36020830186611f4f565b6124d06040830185612244565b6124dd6060830184612244565b95945050505050565b60006040820190506124fb6000830185612244565b818103602083015261250d8184611f7c565b90509392505050565b600060a08201905061252b6000830188612244565b6125386020830187612244565b6125456040830186611f4f565b6125526060830185612244565b61255f6080830184612244565b9695505050505050565b6000604051905081810181811067ffffffffffffffff8211171561258c57600080fd5b8060405250919050565b600067ffffffffffffffff8211156125ad57600080fd5b602082029050602081019050919050565b600067ffffffffffffffff8211156125d557600080fd5b601f19601f8301169050602081019050919050565b600067ffffffffffffffff82111561260157600080fd5b601f19601f8301169050602081019050919050565b6000602082019050919050565b600081519050919050565b600081519050919050565b6000602082019050919050565b600061265182612676565b9050919050565b600061266382612676565b9050919050565b60008115159050919050565b600073ffffffffffffffffffffffffffffffffffffffff82169050919050565b6000819050919050565b6000819050919050565b60006126b5826126bc565b9050919050565b60006126c7826126ce565b9050919050565b60006126d982612676565b9050919050565b82818337600083830152505050565b60005b8381101561270d5780820151818401526020810190506126f2565b8381111561271c576000848401525b50505050565b6000601f19601f830116905091905056fea265627a7a72305820c6786076195c28fb2a5b642ea59b3f8a9b79fc9de420fa3c4d48ae5f143deb826c6578706572696d656e74616cf50037",
  "source": "// SPDX-License-Identifier: MIT\r\npragma solidity >=0.4.18 <0.9.0;\r\npragma experimental ABIEncoderV2;\r\n\r\n\r\ncontract Wordgame {\r\n\r\n    //   -  , \r\n    struct ParticipantInfo {\r\n        uint256 participationTime; //      ->          \r\n        uint256 summitTime;\r\n        uint256 playTime;\r\n        uint256 answerCount;   \r\n        address payable participant; //     (payable  )\r\n        // ToDo :    \r\n        string[] answer_list;\r\n        }\r\n\r\n    struct GameStatusInfo {\r\n        uint256 gameRound;       //    \r\n        string[] answerList;   //   \r\n        string answerWords;    //  \r\n    }\r\n\r\n    bool private _gameStatusFlag; //  on/off  \r\n\r\n    uint256 private _gameTail; // GameStatusInfo   queue tail\r\n    uint256 private _gameHead; // GameStautsINfo   queue head\r\n\r\n    /*        */\r\n    uint256 private _tail; // ParticipantInfo   queue tail\r\n    uint256 private _head; // ParticipantInfo   queue head\r\n\r\n    // pot   \r\n    uint256 private _pot; \r\n\r\n    mapping (uint256 => ParticipantInfo) private _participants; // mapping (_KeyType => _ValueType)\r\n    mapping (uint256 => GameStatusInfo) private _gamestatus;    \r\n    \r\n    // TODO :  ?\r\n    address payable public owner; // public     getter \r\n\r\n    // uint256 constant TIME_LIMIT = 3600; //    ->  ?\r\n    // uint256 constant TIME_WARNING = 3000; //     ->  ?\r\n    uint256 constant internal PARTICIPATION_FEE_AMOUNT = 5 * 10 **15; // 0.005 ether\r\n    uint256 constant internal SUMMIT_FEE_AMOUNT = 2 * 10 **15; // 0.002 ether\r\n\r\n\r\n    event PARTICIPATION(uint256 round_index, uint256 participant_index, address participant, uint256 fee, uint256 participationTime);\r\n    event SUMMIT(uint256 round_index, uint256 participant_index, address participant, uint256 answerCount, uint256 playtime);\r\n    event DISTRIBUTE(uint256 round_index, address winner, uint256 pot);\r\n    event START(uint256 round_index, address sender, string[] trueAnswerList);\r\n    event END(uint256 round_index, address winner, uint256 pot, uint256 next_round);\r\n//     event DRAW(uint256 index, address bettor, uint256 amount, bytes1 challenges, bytes1 answer, uint256 answerBlockNumber);\r\n//     event REFUND(uint256 index, address bettor, uint256 amount, bytes1 challenges, uint256 answerBlockNumber);\r\n\r\n\r\n    // Participantion () ... Bet\r\n    function participation() public payable returns (bool result) {\r\n        // Check the proper ether is sent\r\n        require(msg.value == PARTICIPATION_FEE_AMOUNT, \"Not enough ETH\");\r\n        \r\n        require(_gameStatusFlag == true, \"There are no games in progress\");\r\n        // require(_searchParticipationIndex(), \"Already paricipated\");\r\n\r\n\r\n        // Push bet to the queue\r\n        require(pushParticipantInfo(), \"Fail to add a new Participant Info\");\r\n\r\n        _pot += PARTICIPATION_FEE_AMOUNT;\r\n        uint256 round_index = _gameTail;\r\n\r\n\r\n        // emit event\r\n        emit PARTICIPATION(round_index, _tail-1, msg.sender, msg.value, now);\r\n\r\n        return true;\r\n    }\r\n\r\n    function _searchParticipationIndex() private view returns (bool) {\r\n    for (uint i = _head; i <_tail; i++) {\r\n        if (_participants[i].participant == msg.sender) {\r\n            return false;\r\n        }\r\n        else {\r\n            return true;\r\n        }\r\n        }\r\n    }\r\n\r\n    // save the participant to the queue\r\n    function pushParticipantInfo() internal returns (bool) {\r\n        ParticipantInfo memory p;\r\n        p.participant = msg.sender;\r\n        p.participationTime = now; //   \r\n        \r\n        _participants[_tail] = p;\r\n        _tail++;\r\n\r\n        return true;\r\n    }\r\n    \r\n    //  pot   \r\n        function getPot() public view returns (uint256 pot) { // view :   \r\n        return _pot;\r\n    }\r\n\r\n    //          ->    \r\n    constructor() public {\r\n        owner = msg.sender; // msg.sender     \r\n    }\r\n\r\n    //@getBetInfo : _bets ()    \r\n    function getParticipantInfo(uint256 index) public view returns (address participant, uint256 participationTime, uint256 summitTime, uint256 playTime, string[] memory answerList, uint256 answerCount) {\r\n        ParticipantInfo memory p = _participants[index];\r\n        participant = p.participant;\r\n        participationTime = p.participationTime;\r\n        summitTime =p.summitTime;\r\n        playTime = p.playTime;\r\n        answerList = p.answer_list;\r\n        answerCount = p.answerCount;\r\n    }\r\n\r\n\r\n    //    \r\n    function _wordHash(string memory word) internal pure returns (bytes32) {\r\n        bytes32 wordhash = keccak256(abi.encodePacked(word));\r\n        return wordhash;\r\n    }\r\n\r\n\r\n    function _checkConcatWord(string memory summitWords) private view returns (bool) {\r\n        GameStatusInfo memory g  = _gamestatus[_gameTail];\r\n        if (keccak256(abi.encodePacked(summitWords)) == keccak256(abi.encodePacked(g.answerWords)))\r\n    return true;\r\n    }\r\n\r\n    function _checkWord(string[] memory summitAnswerList) private view returns (uint256) {\r\n        GameStatusInfo memory g  = _gamestatus[_gameTail];\r\n        uint256 _count = 0;\r\n        for(uint i=0; i<g.answerList.length; i++) {\r\n            if(_wordHash(summitAnswerList[i]) == _wordHash(g.answerList[i])) {\r\n                _count++;\r\n            }\r\n        }\r\n        return _count;\r\n    }\r\n\r\n\r\n    function _checkAnswerCount(string memory summitWords, string[] memory summitAnswerList) private view returns (uint256) {\r\n        GameStatusInfo memory g  = _gamestatus[_gameTail];\r\n\r\n        uint256 _count = 0;\r\n        if(_checkConcatWord(summitWords) == true) {\r\n            _count = g.answerList.length;\r\n        }\r\n        else {\r\n            _count = _checkWord(summitAnswerList);\r\n        }   \r\n\r\n        return _count;\r\n    }\r\n\r\n\r\n    function summit(string memory summitWords, string[] memory summitAnswerList) public returns (bool result) {\r\n        // Push summit info to the queue\r\n        require(_gameStatusFlag == true, \"Time over\");\r\n        require(_pushSummitInfo(summitWords, summitAnswerList), \"Fail to add a new Summit Info\");\r\n\r\n        return true;\r\n    }\r\n\r\n    // search senders's participation queue index\r\n    function _searchIndex() private view returns (uint256) {\r\n        uint256 index = 0;\r\n        for (uint i = _head; i <_tail; i++) {\r\n            if (_participants[i].participant == msg.sender) {\r\n                index = i;\r\n                break;\r\n            }\r\n        }\r\n        return index;\r\n    }\r\n\r\n    // save the summit info to the participants queue\r\n    function _pushSummitInfo(string memory summitWords, string[] memory summitAnswerList) internal returns (bool) {   // ParticipantInfo summit info \r\n        uint256 index = 0;\r\n        uint256 round_index = _gameTail;\r\n\r\n\r\n        index = _searchIndex();\r\n        ParticipantInfo memory p = _participants[index];\r\n\r\n        p.summitTime = now;\r\n        p.playTime = p.summitTime - p.participationTime;\r\n        p.answer_list = summitAnswerList;\r\n        p.answerCount = _checkAnswerCount(summitWords, summitAnswerList);\r\n        _participants[index] = p;\r\n\r\n        // emit event\r\n        emit SUMMIT(round_index, index, msg.sender, p.answerCount, p.playTime);\r\n\r\n        return true;\r\n    }\r\n\r\n    function transferAfterPayingFee(address payable addr, uint256 amount) internal returns (uint256) {\r\n        uint256 fee = 0;\r\n        uint256 amountWithoutFee = amount - fee; \r\n\r\n        // transfer to addr\r\n        addr.transfer(amountWithoutFee);\r\n        // transfer to owner\r\n        owner.transfer(fee);\r\n\r\n        return amountWithoutFee;\r\n    }\r\n\r\n    // distribute function -> 1  pot money \r\n    function distribute() public {\r\n        require(msg.sender == owner, \"It is not owner address\");\r\n        require(_gameStatusFlag == true, \"There is no existing game\");\r\n\r\n        // 1 \r\n        address payable winner = _popAndSearchWinner();\r\n        uint256 index = _gameTail;\r\n\r\n        // \r\n        emit DISTRIBUTE(index, winner, _pot);\r\n\r\n        //  \r\n        transferAfterPayingFee(winner, _pot);\r\n        _pot = 0;\r\n\r\n        _gameStatusFlag = false; //   \r\n        _gameTail++;\r\n\r\n        emit END(index, winner, _pot, index+1);\r\n    }\r\n\r\n\r\n    function _popBet(uint256 index) internal returns (bool) {\r\n        delete _participants[index];\r\n        return true;\r\n    }\r\n\r\n    function _popAndSearchWinner() public returns (address payable) {\r\n        ParticipantInfo memory p;\r\n        uint256 answerCount = 0;\r\n        uint256 playTime = 360000;\r\n        address payable winner;\r\n\r\n        for(uint256 i = _head; i < _tail; i++) {\r\n            p = _participants[i];\r\n            if (p.answerCount >= answerCount && playTime > p.playTime) {\r\n                answerCount = p.answerCount;\r\n                playTime = p.playTime;\r\n                winner = p.participant;\r\n            }\r\n            _popBet(i);\r\n        }\r\n        _head = 0;\r\n        _tail = 0;\r\n        return winner;\r\n    }\r\n\r\n\r\n    function _pushAnswerInfo(string memory trueAnswerWords, string[] memory trueAnswerList) private returns (bool) {\r\n        GameStatusInfo memory g;\r\n        g.gameRound = _gameTail;\r\n        g.answerWords = trueAnswerWords;\r\n        g.answerList = trueAnswerList;\r\n\r\n        _gamestatus[_gameTail] = g;\r\n\r\n        return true;\r\n    }\r\n\r\n    function startGame(string memory trueAnswerWords, string[] memory trueAnswerList) public returns (bool) {\r\n        require(msg.sender == owner, 'It is not owner address');\r\n        require(_gameStatusFlag == false, 'Already game start');\r\n\r\n        require(_pushAnswerInfo(trueAnswerWords, trueAnswerList), 'Fail to add new game Info');\r\n\r\n        uint256 index = _gameTail;\r\n        _gameStatusFlag = true;\r\n\r\n        emit START(index, msg.sender, trueAnswerList);\r\n\r\n        return true;\r\n    }\r\n\r\n    function getGameInfo(uint256 index) public view returns (uint256 gameRound, string[] memory trueAnswerList) {\r\n        GameStatusInfo memory g = _gamestatus[index];\r\n        gameRound = g.gameRound;\r\n        trueAnswerList = g.answerList;\r\n    }\r\n\r\n}",
  "sourcePath": "C:/Users/s3lab/Desktop/word_game_smart_contract/contracts/Wordgame.sol",
  "compiler": {
    "name": "solc",
    "version": "0.5.0+commit.1d4f565a.Emscripten.clang"
  },
  "schemaVersion": "3.0.1",
  "updatedAt": "2022-06-02T05:49:39.867Z",
  "devdoc": {
    "methods": {}
  },
  "userdoc": {
    "methods": {}
  }
}