{
  "contractName": "Wordgame",
  "abi": [
    {
      "constant": true,
      "inputs": [],
      "name": "owner",
      "outputs": [
        {
          "name": "",
          "type": "address"
        }
      ],
      "payable": false,
      "stateMutability": "view",
      "type": "function",
      "signature": "0x8da5cb5b"
    },
    {
      "inputs": [],
      "payable": false,
      "stateMutability": "nonpayable",
      "type": "constructor",
      "signature": "constructor"
    },
    {
      "anonymous": false,
      "inputs": [
        {
          "indexed": false,
          "name": "index",
          "type": "uint256"
        },
        {
          "indexed": false,
          "name": "participant",
          "type": "address"
        },
        {
          "indexed": false,
          "name": "fee",
          "type": "uint256"
        },
        {
          "indexed": false,
          "name": "participationTime",
          "type": "uint256"
        }
      ],
      "name": "PARTICIPATION",
      "type": "event",
      "signature": "0x9b79c921c71b645119f4529c5ff3ada53034a2f2c6a16b4b7dd0c83d93ced391"
    },
    {
      "anonymous": false,
      "inputs": [
        {
          "indexed": false,
          "name": "index",
          "type": "uint256"
        },
        {
          "indexed": false,
          "name": "participant",
          "type": "address"
        },
        {
          "indexed": false,
          "name": "answerCount",
          "type": "uint256"
        },
        {
          "indexed": false,
          "name": "playtime",
          "type": "uint256"
        }
      ],
      "name": "SUMMIT",
      "type": "event",
      "signature": "0xcf7e10d2a5612d23ed40dad39d902ad42a44391b9991234aa6985e80de960820"
    },
    {
      "anonymous": false,
      "inputs": [
        {
          "indexed": false,
          "name": "winner",
          "type": "address"
        },
        {
          "indexed": false,
          "name": "pot",
          "type": "uint256"
        }
      ],
      "name": "DISTRIBUTE",
      "type": "event",
      "signature": "0x70d9d5616ce4babfe5ffa09d797bcac9fdd09b117eec861bf9770680724b1fda"
    },
    {
      "constant": false,
      "inputs": [],
      "name": "participation",
      "outputs": [
        {
          "name": "result",
          "type": "bool"
        }
      ],
      "payable": true,
      "stateMutability": "payable",
      "type": "function",
      "signature": "0xd3240bd2"
    },
    {
      "constant": true,
      "inputs": [],
      "name": "getPot",
      "outputs": [
        {
          "name": "pot",
          "type": "uint256"
        }
      ],
      "payable": false,
      "stateMutability": "view",
      "type": "function",
      "signature": "0x403c9fa8"
    },
    {
      "constant": true,
      "inputs": [
        {
          "name": "index",
          "type": "uint256"
        }
      ],
      "name": "getParticipantInfo",
      "outputs": [
        {
          "name": "participant",
          "type": "address"
        },
        {
          "name": "participationTime",
          "type": "uint256"
        },
        {
          "name": "summitTime",
          "type": "uint256"
        },
        {
          "name": "playTime",
          "type": "uint256"
        },
        {
          "name": "answerList",
          "type": "string[]"
        },
        {
          "name": "answerCount",
          "type": "uint256"
        }
      ],
      "payable": false,
      "stateMutability": "view",
      "type": "function",
      "signature": "0xb110c731"
    },
    {
      "constant": true,
      "inputs": [
        {
          "name": "word1",
          "type": "string"
        },
        {
          "name": "word2",
          "type": "string"
        },
        {
          "name": "word3",
          "type": "string"
        }
      ],
      "name": "wordListHash",
      "outputs": [
        {
          "name": "",
          "type": "bytes32"
        }
      ],
      "payable": false,
      "stateMutability": "pure",
      "type": "function",
      "signature": "0x4398aec5"
    },
    {
      "constant": true,
      "inputs": [
        {
          "name": "summitWords",
          "type": "string"
        },
        {
          "name": "answerWords",
          "type": "string"
        },
        {
          "name": "summitAnswerList",
          "type": "string[]"
        },
        {
          "name": "answerList",
          "type": "string[]"
        }
      ],
      "name": "checkAnswerCount",
      "outputs": [
        {
          "name": "",
          "type": "uint256"
        }
      ],
      "payable": false,
      "stateMutability": "view",
      "type": "function",
      "signature": "0x210f2986"
    },
    {
      "constant": false,
      "inputs": [
        {
          "name": "summitWords",
          "type": "string"
        },
        {
          "name": "answerWords",
          "type": "string"
        },
        {
          "name": "summitAnswerList",
          "type": "string[]"
        },
        {
          "name": "answerList",
          "type": "string[]"
        }
      ],
      "name": "summit",
      "outputs": [
        {
          "name": "result",
          "type": "bool"
        }
      ],
      "payable": false,
      "stateMutability": "nonpayable",
      "type": "function",
      "signature": "0x5f8bf24d"
    },
    {
      "constant": false,
      "inputs": [],
      "name": "distribute",
      "outputs": [],
      "payable": false,
      "stateMutability": "nonpayable",
      "type": "function",
      "signature": "0xe4fc6b6d"
    },
    {
      "constant": false,
      "inputs": [],
      "name": "_popAndSearchWinner",
      "outputs": [
        {
          "name": "",
          "type": "address"
        }
      ],
      "payable": false,
      "stateMutability": "nonpayable",
      "type": "function",
      "signature": "0x0322e7d0"
    }
  ],
  "bytecode": "0x608060405234801561001057600080fd5b5033600460006101000a81548173ffffffffffffffffffffffffffffffffffffffff021916908373ffffffffffffffffffffffffffffffffffffffff160217905550611b8d806100616000396000f3fe608060405260043610610099576000357c0100000000000000000000000000000000000000000000000000000000900463ffffffff1680630322e7d01461009e578063210f2986146100c9578063403c9fa8146101065780634398aec5146101315780635f8bf24d1461016e5780638da5cb5b146101ab578063b110c731146101d6578063d3240bd214610218578063e4fc6b6d14610236575b600080fd5b3480156100aa57600080fd5b506100b361024d565b6040516100c091906117dd565b60405180910390f35b3480156100d557600080fd5b506100f060048036036100eb9190810190611491565b610462565b6040516100fd919061191f565b60405180910390f35b34801561011257600080fd5b5061011b6104a1565b604051610128919061191f565b60405180910390f35b34801561013d57600080fd5b5061015860048036036101539190810190611554565b6104ab565b60405161016591906118a4565b60405180910390f35b34801561017a57600080fd5b5061019560048036036101909190810190611491565b6105d9565b6040516101a29190611889565b60405180910390f35b3480156101b757600080fd5b506101c0610634565b6040516101cd91906117dd565b60405180910390f35b3480156101e257600080fd5b506101fd60048036036101f891908101906115eb565b61065a565b60405161020f96959493929190611821565b60405180910390f35b610220610828565b60405161022d9190611889565b60405180910390f35b34801561024257600080fd5b5061024b61091e565b005b6000610257611174565b6000809050600062057e40905060008060015490505b600054811015610448576003600082815260200190815260200160002060c06040519081016040529081600082015481526020016001820154815260200160028201548152602001600382015481526020016004820160009054906101000a900473ffffffffffffffffffffffffffffffffffffffff1673ffffffffffffffffffffffffffffffffffffffff1673ffffffffffffffffffffffffffffffffffffffff16815260200160058201805480602002602001604051908101604052809291908181526020016000905b828210156103f5578382906000526020600020018054600181600116156101000203166002900480601f0160208091040260200160405190810160405280929190818152602001828054600181600116156101000203166002900480156103e15780601f106103b6576101008083540402835291602001916103e1565b820191906000526020600020905b8154815290600101906020018083116103c457829003601f168201915b505050505081526020019060010190610339565b50505050815250509450838560600151101580156104165750846040015183115b15610431578460600151935084604001519250846080015191505b61043a816109b8565b50808060010191505061026d565b506000600181905550600080819055508094505050505090565b60008060009050600115156104778787610a30565b151514156104885782519050610495565b6104928484610b30565b90505b80915050949350505050565b6000600254905090565b6000808484846040516020018084805190602001908083835b6020831015156104e957805182526020820191506020810190506020830392506104c4565b6001836020036101000a03801982511681845116808217855250505050505090500183805190602001908083835b60208310151561053c5780518252602082019150602081019050602083039250610517565b6001836020036101000a03801982511681845116808217855250505050505090500182805190602001908083835b60208310151561058f578051825260208201915060208101905060208303925061056a565b6001836020036101000a0380198251168184511680821785525050505050509050019350505050604051602081830303815290604052805190602001209050809150509392505050565b60006105e785858585610bad565b1515610628576040517f08c379a000000000000000000000000000000000000000000000000000000000815260040161061f906118ff565b60405180910390fd5b60019050949350505050565b600460009054906101000a900473ffffffffffffffffffffffffffffffffffffffff1681565b6000806000806060600061066c611174565b6003600089815260200190815260200160002060c06040519081016040529081600082015481526020016001820154815260200160028201548152602001600382015481526020016004820160009054906101000a900473ffffffffffffffffffffffffffffffffffffffff1673ffffffffffffffffffffffffffffffffffffffff1673ffffffffffffffffffffffffffffffffffffffff16815260200160058201805480602002602001604051908101604052809291908181526020016000905b828210156107ea578382906000526020600020018054600181600116156101000203166002900480601f0160208091040260200160405190810160405280929190818152602001828054600181600116156101000203166002900480156107d65780601f106107ab576101008083540402835291602001916107d6565b820191906000526020600020905b8154815290600101906020018083116107b957829003601f168201915b50505050508152602001906001019061072e565b50505050815250509050806080015196508060000151955080602001519450806040015193508060a001519250806060015191505091939550919395565b60006611c37937e0800034141515610875576040517f08c379a000000000000000000000000000000000000000000000000000000000815260040161086c906118bf565b60405180910390fd5b61087d610e80565b15156108be576040517f08c379a00000000000000000000000000000000000000000000000000000000081526004016108b5906118df565b60405180910390fd5b6611c37937e080006002600082825401925050819055507f9b79c921c71b645119f4529c5ff3ada53034a2f2c6a16b4b7dd0c83d93ced39160016000540333344260405161090f949392919061193a565b60405180910390a16001905090565b600061092861024d565b90507f70d9d5616ce4babfe5ffa09d797bcac9fdd09b117eec861bf9770680724b1fda8160025460405161095d9291906117f8565b60405180910390a161097181600254610f89565b5060006002819055507f70d9d5616ce4babfe5ffa09d797bcac9fdd09b117eec861bf9770680724b1fda816002546040516109ad9291906117f8565b60405180910390a150565b6000600360008381526020019081526020016000206000808201600090556001820160009055600282016000905560038201600090556004820160006101000a81549073ffffffffffffffffffffffffffffffffffffffff0219169055600582016000610a2591906111c1565b505060019050919050565b6000816040516020018082805190602001908083835b602083101515610a6b5780518252602082019150602081019050602083039250610a46565b6001836020036101000a03801982511681845116808217855250505050505090500191505060405160208183030381529060405280519060200120836040516020018082805190602001908083835b602083101515610adf5780518252602082019150602081019050602083039250610aba565b6001836020036101000a038019825116818451168082178552505050505050905001915050604051602081830303815290604052805190602001201415610b295760019050610b2a565b5b92915050565b6000806000905060008090505b8351811015610ba257610b668482815181101515610b5757fe5b90602001906020020151611052565b610b868683815181101515610b7757fe5b90602001906020020151611052565b1415610b955781806001019250505b8080600101915050610b3d565b508091505092915050565b60008060009050610bbc6110d4565b9050610bc6611174565b6003600083815260200190815260200160002060c06040519081016040529081600082015481526020016001820154815260200160028201548152602001600382015481526020016004820160009054906101000a900473ffffffffffffffffffffffffffffffffffffffff1673ffffffffffffffffffffffffffffffffffffffff1673ffffffffffffffffffffffffffffffffffffffff16815260200160058201805480602002602001604051908101604052809291908181526020016000905b82821015610d44578382906000526020600020018054600181600116156101000203166002900480601f016020809104026020016040519081016040528092919081815260200182805460018160011615610100020316600290048015610d305780601f10610d0557610100808354040283529160200191610d30565b820191906000526020600020905b815481529060010190602001808311610d1357829003601f168201915b505050505081526020019060010190610c88565b50505050815250509050428160200181815250508060000151816020015103816040018181525050848160a00181905250610d8187878787610462565b81606001818152505080600360008481526020019081526020016000206000820151816000015560208201518160010155604082015181600201556060820151816003015560808201518160040160006101000a81548173ffffffffffffffffffffffffffffffffffffffff021916908373ffffffffffffffffffffffffffffffffffffffff16021790555060a0820151816005019080519060200190610e299291906111e2565b509050507fcf7e10d2a5612d23ed40dad39d902ad42a44391b9991234aa6985e80de960820823383606001518460400151604051610e6a949392919061193a565b60405180910390a1600192505050949350505050565b6000610e8a611174565b33816080019073ffffffffffffffffffffffffffffffffffffffff16908173ffffffffffffffffffffffffffffffffffffffff1681525050428160000181815250508060036000805481526020019081526020016000206000820151816000015560208201518160010155604082015181600201556060820151816003015560808201518160040160006101000a81548173ffffffffffffffffffffffffffffffffffffffff021916908373ffffffffffffffffffffffffffffffffffffffff16021790555060a0820151816005019080519060200190610f6c9291906111e2565b509050506000808154809291906001019190505550600191505090565b60008060009050600081840390508473ffffffffffffffffffffffffffffffffffffffff166108fc829081150290604051600060405180830381858888f19350505050158015610fdd573d6000803e3d6000fd5b50600460009054906101000a900473ffffffffffffffffffffffffffffffffffffffff1673ffffffffffffffffffffffffffffffffffffffff166108fc839081150290604051600060405180830381858888f19350505050158015611046573d6000803e3d6000fd5b50809250505092915050565b600080826040516020018082805190602001908083835b60208310151561108e5780518252602082019150602081019050602083039250611069565b6001836020036101000a03801982511681845116808217855250505050505090500191505060405160208183030381529060405280519060200120905080915050919050565b60008060009050600060015490505b60005481101561116c573373ffffffffffffffffffffffffffffffffffffffff166003600083815260200190815260200160002060040160009054906101000a900473ffffffffffffffffffffffffffffffffffffffff1673ffffffffffffffffffffffffffffffffffffffff16141561115f5780915061116c565b80806001019150506110e3565b508091505090565b60c06040519081016040528060008152602001600081526020016000815260200160008152602001600073ffffffffffffffffffffffffffffffffffffffff168152602001606081525090565b50805460008255906000526020600020908101906111df9190611242565b50565b828054828255906000526020600020908101928215611231579160200282015b8281111561123057825182908051906020019061122092919061126e565b5091602001919060010190611202565b5b50905061123e9190611242565b5090565b61126b91905b80821115611267576000818161125e91906112ee565b50600101611248565b5090565b90565b828054600181600116156101000203166002900490600052602060002090601f016020900481019282601f106112af57805160ff19168380011785556112dd565b828001600101855582156112dd579182015b828111156112dc5782518255916020019190600101906112c1565b5b5090506112ea9190611336565b5090565b50805460018160011615610100020316600290046000825580601f106113145750611333565b601f0160209004906000526020600020908101906113329190611336565b5b50565b61135891905b8082111561135457600081600090555060010161133c565b5090565b90565b600082601f830112151561136e57600080fd5b813561138161137c826119ac565b61197f565b9150818183526020840193506020810190508360005b838110156113c757813586016113ad88826113d1565b845260208401935060208301925050600181019050611397565b5050505092915050565b600082601f83011215156113e457600080fd5b81356113f76113f2826119d4565b61197f565b9150808252602083016020830185838301111561141357600080fd5b61141e838284611b00565b50505092915050565b600082601f830112151561143a57600080fd5b813561144d61144882611a00565b61197f565b9150808252602083016020830185838301111561146957600080fd5b611474838284611b00565b50505092915050565b60006114898235611ac0565b905092915050565b600080600080608085870312156114a757600080fd5b600085013567ffffffffffffffff8111156114c157600080fd5b6114cd87828801611427565b945050602085013567ffffffffffffffff8111156114ea57600080fd5b6114f687828801611427565b935050604085013567ffffffffffffffff81111561151357600080fd5b61151f8782880161135b565b925050606085013567ffffffffffffffff81111561153c57600080fd5b6115488782880161135b565b91505092959194509250565b60008060006060848603121561156957600080fd5b600084013567ffffffffffffffff81111561158357600080fd5b61158f86828701611427565b935050602084013567ffffffffffffffff8111156115ac57600080fd5b6115b886828701611427565b925050604084013567ffffffffffffffff8111156115d557600080fd5b6115e186828701611427565b9150509250925092565b6000602082840312156115fd57600080fd5b600061160b8482850161147d565b91505092915050565b61161d81611aca565b82525050565b61162c81611a6e565b82525050565b61163b81611a5c565b82525050565b600061164c82611a39565b8084526020840193508360208202850161166585611a2c565b60005b8481101561169e5783830388526116808383516116cd565b925061168b82611a4f565b9150602088019750600181019050611668565b508196508694505050505092915050565b6116b881611a80565b82525050565b6116c781611a8c565b82525050565b60006116d882611a44565b8084526116ec816020860160208601611b0f565b6116f581611b42565b602085010191505092915050565b6000600e82527f4e6f7420656e6f756768204554480000000000000000000000000000000000006020830152604082019050919050565b6000602282527f4661696c20746f206164642061206e6577205061727469636970616e7420496e60208301527f666f0000000000000000000000000000000000000000000000000000000000006040830152606082019050919050565b6000601d82527f4661696c20746f206164642061206e65772053756d6d697420496e666f0000006020830152604082019050919050565b6117d781611ab6565b82525050565b60006020820190506117f26000830184611623565b92915050565b600060408201905061180d6000830185611614565b61181a60208301846117ce565b9392505050565b600060c0820190506118366000830189611632565b61184360208301886117ce565b61185060408301876117ce565b61185d60608301866117ce565b818103608083015261186f8185611641565b905061187e60a08301846117ce565b979650505050505050565b600060208201905061189e60008301846116af565b92915050565b60006020820190506118b960008301846116be565b92915050565b600060208201905081810360008301526118d881611703565b9050919050565b600060208201905081810360008301526118f88161173a565b9050919050565b6000602082019050818103600083015261191881611797565b9050919050565b600060208201905061193460008301846117ce565b92915050565b600060808201905061194f60008301876117ce565b61195c6020830186611614565b61196960408301856117ce565b61197660608301846117ce565b95945050505050565b6000604051905081810181811067ffffffffffffffff821117156119a257600080fd5b8060405250919050565b600067ffffffffffffffff8211156119c357600080fd5b602082029050602081019050919050565b600067ffffffffffffffff8211156119eb57600080fd5b601f19601f8301169050602081019050919050565b600067ffffffffffffffff821115611a1757600080fd5b601f19601f8301169050602081019050919050565b6000602082019050919050565b600081519050919050565b600081519050919050565b6000602082019050919050565b6000611a6782611a96565b9050919050565b6000611a7982611a96565b9050919050565b60008115159050919050565b6000819050919050565b600073ffffffffffffffffffffffffffffffffffffffff82169050919050565b6000819050919050565b6000819050919050565b6000611ad582611adc565b9050919050565b6000611ae782611aee565b9050919050565b6000611af982611a96565b9050919050565b82818337600083830152505050565b60005b83811015611b2d578082015181840152602081019050611b12565b83811115611b3c576000848401525b50505050565b6000601f19601f830116905091905056fea265627a7a7230582062d385071595371b6fb1279f2503395e56a79c8d1d6fc604e69ab3ac722c2f2f6c6578706572696d656e74616cf50037",
  "source": "// SPDX-License-Identifier: MIT\r\npragma solidity >=0.4.18 <0.9.0;\r\npragma experimental ABIEncoderV2;\r\n\r\n\r\ncontract Wordgame {\r\n\r\n    //   -  , \r\n    struct ParticipantInfo {\r\n        uint256 participationTime; //      ->          \r\n        uint256 summitTime;\r\n        uint256 playTime;\r\n        uint256 answerCount;   \r\n        address payable participant; //     (payable  )\r\n        // ToDo :    \r\n        string[] answer_list;\r\n        }\r\n\r\n    /*        */\r\n    uint256 private _tail; // ParticipantInfo   queue tail\r\n    uint256 private _head; // ParticipantInfo   queue head\r\n\r\n    uint256 private _pot; \r\n\r\n    mapping (uint256 => ParticipantInfo) private _participants; // mapping (_KeyType => _ValueType)\r\n    \r\n    // TODO :  ?\r\n    address payable public owner; // public     getter \r\n\r\n    // uint256 constant TIME_LIMIT = 3600; //    ->  ?\r\n    // uint256 constant TIME_WARNING = 3000; //     ->  ?\r\n    uint256 constant internal PARTICIPATION_FEE_AMOUNT = 5 * 10 **15; // 0.005 ether\r\n    uint256 constant internal SUMMIT_FEE_AMOUNT = 2 * 10 **15; // 0.002 ether\r\n\r\n\r\n    event PARTICIPATION(uint256 index, address participant, uint256 fee, uint256 participationTime);\r\n    event SUMMIT(uint256 index, address participant, uint256 answerCount, uint256 playtime);\r\n    event DISTRIBUTE(address winner, uint256 pot);\r\n//     event DRAW(uint256 index, address bettor, uint256 amount, bytes1 challenges, bytes1 answer, uint256 answerBlockNumber);\r\n//     event REFUND(uint256 index, address bettor, uint256 amount, bytes1 challenges, uint256 answerBlockNumber);\r\n\r\n\r\n    // Participantion () ... Bet\r\n    function participation() public payable returns (bool result) {\r\n        // Check the proper ether is sent\r\n        require(msg.value == PARTICIPATION_FEE_AMOUNT, \"Not enough ETH\");\r\n\r\n        // Push bet to the queue\r\n        require(pushParticipantInfo(), \"Fail to add a new Participant Info\");\r\n\r\n        _pot += PARTICIPATION_FEE_AMOUNT;\r\n\r\n        // emit event\r\n        emit PARTICIPATION(_tail-1, msg.sender, msg.value, now);\r\n\r\n        return true;\r\n    }\r\n\r\n    // save the participant to the queue\r\n    function pushParticipantInfo() internal returns (bool) {\r\n        ParticipantInfo memory p;\r\n        p.participant = msg.sender;\r\n        p.participationTime = now; //   \r\n        \r\n        _participants[_tail] = p;\r\n        _tail++;\r\n\r\n        return true;\r\n    }\r\n    \r\n    //  pot   \r\n        function getPot() public view returns (uint256 pot) { // view :   \r\n        return _pot;\r\n    }\r\n\r\n    //          ->    \r\n    constructor() public {\r\n        owner = msg.sender; // msg.sender     \r\n    }\r\n\r\n    //@getBetInfo : _bets ()    \r\n    function getParticipantInfo(uint256 index) public view returns (address participant, uint256 participationTime, uint256 summitTime, uint256 playTime, string[] memory answerList, uint256 answerCount) {\r\n        ParticipantInfo memory p = _participants[index];\r\n        participant = p.participant;\r\n        participationTime = p.participationTime;\r\n        summitTime =p.summitTime;\r\n        playTime = p.playTime;\r\n        answerList = p.answer_list;\r\n        answerCount = p.answerCount;\r\n    }\r\n\r\n    /*\r\n      \r\n    1.    ->  keccak256 hash  ->     \r\n    2.      ->     \r\n    3.     keccak256 hash  \r\n    */\r\n\r\n\r\n    //    \r\n    function _wordHash(string memory word) internal pure returns (bytes32) {\r\n        bytes32 wordhash = keccak256(abi.encodePacked(word));\r\n        return wordhash;\r\n    }\r\n    \r\n    //      -> Test     ->  \r\n    function wordListHash(string memory word1, string memory word2, string memory word3) public pure returns (bytes32) {\r\n        bytes32 wordlisthash = keccak256(abi.encodePacked(word1, word2, word3));\r\n        return wordlisthash;\r\n    }\r\n\r\n    //   \r\n    function _checkConcatWord(string memory summitWords, string memory answerWords) private view returns (bool) {\r\n        if (keccak256(abi.encodePacked(summitWords)) == keccak256(abi.encodePacked(answerWords)))\r\n    return true;\r\n    }\r\n\r\n    //   \r\n    function _checkWord(string[] memory summitAnswerList, string[] memory answerList) private view returns (uint256) {\r\n        uint256 _count = 0;\r\n        for(uint i=0; i<answerList.length; i++) {\r\n            if(_wordHash(summitAnswerList[i]) == _wordHash(answerList[i])) {\r\n                _count++;\r\n            }\r\n        }\r\n        return _count;\r\n    }\r\n\r\n    //    <- Summit     => summit    private \r\n    function checkAnswerCount(string memory summitWords, string memory answerWords, string[] memory summitAnswerList, string[] memory answerList) public view returns (uint256) {\r\n        uint256 _count = 0;\r\n        if(_checkConcatWord(summitWords, answerWords) == true) {\r\n            _count = answerList.length;\r\n        }\r\n        else {\r\n            _count = _checkWord(summitAnswerList, answerList);\r\n        }   \r\n\r\n        return _count;\r\n    }\r\n    //       hash  ?\r\n\r\n    /*  \r\n    1. _pushSummitInfo()      \r\n    2.       participation     msg.sender  \r\n        _searchIndex()\r\n    3. summit   \r\n    */\r\n    function summit(string memory summitWords, string memory answerWords, string[] memory summitAnswerList, string[] memory answerList) public returns (bool result) {\r\n        // Push summit info to the queue\r\n        require(_pushSummitInfo(summitWords, answerWords, summitAnswerList, answerList), \"Fail to add a new Summit Info\");\r\n\r\n        return true;\r\n    }\r\n\r\n    // search senders's participation queue index\r\n    function _searchIndex() private view returns (uint256) {\r\n        uint256 index = 0;\r\n        for (uint i = _head; i <_tail; i++) {\r\n            if (_participants[i].participant == msg.sender) {\r\n                index = i;\r\n                break;\r\n            }\r\n        }\r\n        return index;\r\n    }\r\n\r\n    // save the summit info to the participants queue\r\n    function _pushSummitInfo(string memory summitWords, string memory answerWords, string[] memory summitAnswerList, string[] memory answerList) internal returns (bool) {   // ParticipantInfo summit info \r\n        uint256 index = 0;\r\n\r\n        index = _searchIndex();\r\n        ParticipantInfo memory p = _participants[index];\r\n\r\n        p.summitTime = now;\r\n        p.playTime = p.summitTime - p.participationTime;\r\n        p.answer_list = summitAnswerList;\r\n        p.answerCount = checkAnswerCount(summitWords, answerWords, summitAnswerList, answerList);\r\n        _participants[index] = p;\r\n\r\n        // emit event\r\n        emit SUMMIT(index, msg.sender, p.answerCount, p.playTime);\r\n\r\n        return true;\r\n    }\r\n\r\n    function transferAfterPayingFee(address payable addr, uint256 amount) internal returns (uint256) {\r\n        uint256 fee = 0;\r\n        uint256 amountWithoutFee = amount - fee; \r\n\r\n        // transfer to addr\r\n        addr.transfer(amountWithoutFee);\r\n        // transfer to owner\r\n        owner.transfer(fee);\r\n\r\n        return amountWithoutFee;\r\n    }\r\n\r\n    // distribute function -> 1  pot money \r\n    function distribute() public {\r\n        // require msg.sender == owner  \r\n        // 1 \r\n        address payable winner = _popAndSearchWinner();\r\n\r\n        // \r\n        emit DISTRIBUTE(winner, _pot);\r\n\r\n        //  \r\n        transferAfterPayingFee(winner, _pot);\r\n        _pot = 0;\r\n        emit DISTRIBUTE(winner, _pot);\r\n\r\n    }\r\n\r\n    function _popBet(uint256 index) internal returns (bool) {\r\n        delete _participants[index];\r\n        return true;\r\n    }\r\n\r\n    function _popAndSearchWinner() public returns (address payable) {\r\n        ParticipantInfo memory p;\r\n        uint256 answerCount = 0;\r\n        uint256 playTime = 360000;\r\n        address payable winner;\r\n\r\n        for(uint256 i = _head; i < _tail; i++) {\r\n            p = _participants[i];\r\n            if (p.answerCount >= answerCount && playTime > p.playTime) {\r\n                answerCount = p.answerCount;\r\n                playTime = p.playTime;\r\n                winner = p.participant;\r\n            }\r\n            _popBet(i);\r\n        }\r\n        _head = 0;\r\n        _tail = 0;\r\n        return winner;\r\n    }\r\n}",
  "sourcePath": "C:/Users/s3lab/Desktop/word_game_smart_contract/contracts/Wordgame.sol",
  "compiler": {
    "name": "solc",
    "version": "0.5.0+commit.1d4f565a.Emscripten.clang"
  },
  "schemaVersion": "3.0.1",
  "updatedAt": "2022-05-28T04:52:39.538Z",
  "devdoc": {
    "methods": {}
  },
  "userdoc": {
    "methods": {}
  }
}